:100000000C9472000C9493000C9493000C94930045
:100010000C9493000C9493000C9493000C94930014
:100020000C9493000C9493000C9493000C94930004
:100030000C9493000C9493000C9493000C949300F4
:100040000C9493000C9493000C9493000C949300E4
:100050000C9493000C9493000C9493000C949300D4
:100060000C9493000C9493000C9493000C949300C4
:100070000C9493000C9493000C9493000C949300B4
:100080000C9493000C9493000C9493000C949300A4
:100090000C9429010C9455010C9493000C9493003A
:1000A0000C9493000C9493000C9493000C94930084
:1000B0000C9493000C9493000C9493000C94930074
:1000C0000C9493000C9493000C9493000C94930064
:1000D0000C9493000C9493000C9493000C94930054
:1000E0000C94930011241FBECFEFD1E2DEBFCDBF31
:1000F00000E00CBF12E0A0E0B2E0E2EEFBE000E0C6
:100100000BBF02C007900D92A631B107D9F716E0D8
:10011000A6E1B2E001C01D92A232B107E1F70E9450
:10012000CB030C94EF050C94000020E030E0682F26
:1001300070E040E951E0CB01022E02C09595879511
:100140000A94E2F780FF11C0289A88EC90E0FA0147
:100150003197F1F70197D9F7289880EA9FE0FA01E3
:100160003197F1F70197D9F710C0299A88EC90E000
:10017000FA013197F1F70197D9F7299880EA9FE0C2
:10018000FA013197F1F70197D9F72F5F3F4F2830E8
:10019000310589F60895289A8AE08A95F1F728981A
:1001A00008952F9A08952F9808952F9A80E29EE43B
:1001B0000197F1F72F980895CF93DF93482FEB0124
:1001C000CE5FDE4F88819981C250D140019660E0B8
:1001D00071E00E94A6059C01FE01E050FF4F808166
:1001E000918182179307D9F3DE01AE5FBE4FED9187
:1001F000FC911197EC0FFD1F408311963C932E93B9
:10020000DF91CF910895CF93DF93DC01EC01C050D3
:10021000DF4F28813981AE5FBE4F8D919C91119740
:10022000A250B1402817390711F4E0E00EC0E88170
:10023000F981EA0FFB1FE08188819981019660E0D6
:1002400071E00E94A605998388838E2FDF91CF915C
:1002500008951F920F920FB60F920BB60F921124B2
:100260002F933F934F935F936F937F938F939F93BE
:10027000AF93BF93EF93FF938091CE006EE175E053
:100280000E94DC00FF91EF91BF91AF919F918F9100
:100290007F916F915F914F913F912F910F900BBE86
:1002A0000F900FBE0F901F9018951F920F920FB6D0
:1002B0000F920BB60F9211242F933F934F935F939E
:1002C0006F937F938F939F93AF93BF93EF93FF931E
:1002D00080911C0590911D0520911A0530911B05F8
:1002E00080509F4F821B930B60E071E00E94A60537
:1002F000892B39F08AE194E00E9403018093CE00BB
:1003000005C08091C9008F7D8093C900FF91EF9156
:10031000BF91AF919F918F917F916F915F914F911D
:100320003F912F910F900BBE0F900FBE0F901F901B
:10033000189520911A0530911B0580911C0590910C
:100340001D0528173907A9F710921B0510921A05E9
:1003500010921D0510921C0510921F0610921E0689
:100360001092210610922006089510921F061092F6
:100370001E0610922106109220060895EF92FF9219
:100380000F931F937C010E94990100E010E083E02D
:10039000EE0CFF1C001F111F8A95D1F760E074E27C
:1003A00084EF90E0A80197010E94B90521503040E8
:1003B0003093CD002093CC00E8ECF0E080818260A7
:1003C0008083E9ECF0E0808188698083EAECF0E0EA
:1003D00080818660808378941F910F91FF90EF90C9
:1003E00008950E9499011092C900089580912006F5
:1003F0009091210620911E0630911F0680509F4F3C
:10040000821B930B60E071E00E94A60508956AE1EB
:1004100074E00E94DC00E9ECF0E08081806280837F
:100420000895CF93DF93EC0105C021966AE174E053
:100430000E94DC0088818823C1F78091C900806216
:100440008093C900DF91CF910895CF93DF93EC01A2
:1004500004C06AE174E00E94DC00FE0121968491F0
:100460008823B9F78091C90080628093C900DF9129
:10047000CF9108958EE195E00E9403010895CF93F6
:10048000DF93EC010E943A0289938823D9F7DF9128
:10049000CF910895209120063091210680911E066B
:1004A00090911F062817390711F480E00895E09114
:1004B0001E06F0911F06E25EFA4F808108952AB170
:1004C000FC01EE0FFF1FEE5EFD4F81E090E000802B
:1004D00002C0880F991F0A94E2F7809528232AB951
:1004E0002BB182238BB908952AB1FC01EE0FFF1FB7
:1004F000EE5EFD4F81E090E0008002C0880F991F02
:100500000A94E2F7282B2AB92BB1282B2BB99AE6AB
:100510009A95F1F72BB1809582238BB90895FC0150
:10052000EE0FFF1FEE5EFD4F41E050E0008002C085
:10053000440F551F0A94E2F760E020E030E075E3D5
:10054000E1E0F0E0872F8A95F1F789B190E084230C
:100550009523892B41F0CF01022E02C0880F991FED
:100560000A94E2F7682B872F8A95F1F72F5F3F4FA8
:100570002830310539F7862F0895CF93DF93EC01AA
:100580000E947402CE010E945F0285E38A95F1F712
:1005900089B1FE01EE0FFF1FEE5EFD4FE08190E09E
:1005A0000E2E02C0959587950A94E2F780FD03C050
:1005B0002FEF3FEF12C021E030E002C0220F331FC7
:1005C000EA95E2F789B190E082239323892BD1F752
:1005D000CE010E948F02282F30E0C901DF91CF9118
:1005E0000895E0E4F6E03197F1F7F8942E9A2AE6C0
:1005F0002A95F1F7009709F02E9825ED2A95F1F745
:10060000892B19F020E030E00AC08CB1282F30E0AF
:1006100064E0369527956A95E1F72170307085ED95
:100620008A95F1F72E9A78948AE68A95F1F72E98B2
:10063000C9010895269A2E9A6C9874980895EF929D
:10064000FF920F931F93CF93DF93C0E0D0E071E050
:10065000E72EF12C082F10E0C7010C2E02C0880FE6
:10066000991F0A94E2F7802391230E94F1022196B8
:10067000C830D10589F7DF91CF911F910F91FF907D
:10068000EF900895EF92FF921F93CF93DF9310E0C6
:10069000C0E0D0E0E1E0EE2EF12C80E090E00E949E
:1006A000F102892B41F0C7010C2E02C0880F991F5F
:1006B0000A94E2F7182B2196C830D10571F7812FE3
:1006C000DF91CF911F91FF90EF90089590911102CB
:1006D0009F5F9F3F09F491E0E92FF0E0E95EFD4F55
:1006E00080818823A9F3909311020895E8E1F2E054
:1006F0008081882319F021E030E007C0319683E043
:10070000E531F807A9F720E030E0C9010895FC01C0
:1007100020E030E017C0A4E0220F331FAA95E1F7D4
:10072000892F8154863020F4892F90E0C79707C025
:10073000892F80538A3028F4892F90E0C097282B86
:10074000392B31969081992331F7C9010895CF93C0
:10075000DF93EC01FC012CE130E0DB01CA01022E49
:1007600004C0B695A795979587950A94D2F78F7090
:1007700090708A30910514F08F5B01C0805D80839A
:100780002450304031968FEF2C3F380731F71886D0
:10079000DF91CF9108952F923F924F925F926F9287
:1007A0007F928F929F92AF92BF92CF92DF92EF9201
:1007B000FF920F931F93DF93CF93CDB7DEB7CD5446
:1007C000D0400FB6F894DEBF0FBECDBF279A2F984A
:1007D000709868980E941A0380E091EE0E94BE0112
:1007E00088E893E120E931E0F9013197F1F70197C9
:1007F000D9F7A0900F02B0901002C0901602D090CE
:100800001702B4E06B2E712C6C0E7D1EADE08A2EAB
:10081000912C8C0E9D1EF0E94F2EF1E05F2EE0EA48
:100820002E2EEFE03E2EC114D104E1F52F9AA11433
:10083000B10479F42F9881E090E00E94F1028FEFEB
:100840000E941F038FEF0E941F038FEF0E941F0360
:1008500079C180E090E00E94F102892B09F4AFC0D9
:100860002F9820E030E0F901E85EFD4F808189019A
:100870000F5F1F4F882319F481E0808304C0980123
:100880000E3F110581F7802F0E941F030093110274
:10089000E02FF0E0EB5EFC4F108210921504AA24CA
:1008A000BB248AC081E0C816D10409F04EC00E9462
:1008B0004203182F0E944203282F80911504882399
:1008C00039F5153009F43BC1812F90E0A0E0B0E08C
:1008D000DC019927882730E040E050E0542F432F77
:1008E000322F2227822B932BA42BB52B2091110280
:1008F00030E040E050E0822B932BA42BB52B80936B
:10090000160490931704A0931804B093190406C01A
:10091000813009F014C1173009F011C1E0911102C2
:10092000F0E0E95EFD4F1082E8E1F2E0808188238B
:1009300049F4319693E0E531F907C1F781E0A82E3B
:10094000B12C1DC00E946603FDC0E2E0CE16D104AA
:10095000B1F510911404112349F08FEF0E941F0389
:10096000812F0E941F031092140429C0A114B10406
:1009700049F08FEF0E941F0386E00E941F03CC24E2
:10098000DD241DC0809111020E941F03E09111021D
:10099000F0E0EB5EFC4F8081882349F00E941F034A
:1009A000E0911102F0E0EB5EFC4F108203C081E0A9
:1009B0000E941F031092150401E0C02ED12CF89460
:1009C00080E090E00E94BD02FC018FEFEF3FF8074E
:1009D00021F0EB5EFC4F98E0908381E090E00E9474
:1009E000BD02FC018FEFEF3FF80721F0EB5EFC4FFB
:1009F00099E0908378940E94F60104970CF49BC0D0
:100A00000E943A020E943A0289830E943A028A8333
:100A10001B82CE0101960E9487038C010E943A023C
:100A2000813341F40B5E1C4F88E0F801808380E045
:100A300092E077C0803341F40B5E1C4F89E0F801EF
:100A4000808383E092E06DC0873609F049C0F401ED
:100A500081E411928A95E9F7740100E010E02BC05F
:100A6000819190E0022E02C0880F991F0A94E2F74C
:100A7000AA2797FDA095BA2F482B592B6A2B7B2BC1
:100A80002F5F3F4F2032310531F0C901800F911F98
:100A90008E3F91052CF3C7010E94A7038CE2F7015A
:100AA0008087005E1F4FE9E0F0E0EE0EFF1EF1E0F0
:100AB00000301F0751F0F801E85EFD4F40E050E0C4
:100AC00060E070E020E030E0E0CFC4010E9411025D
:100AD00088EE93E0F2013197F1F70197D9F723C03F
:100AE000833641F487E092E00E94110211E0A12ECA
:100AF000B12C19C0823739F48BE092E00E941102C8
:100B0000AA24BB2410C08C3671F440911604509175
:100B100017046091180470911904C3010E94A7037F
:100B2000C3010E94110210921F0610921E0610921D
:100B3000210610922006C1010197F1F774CE2230F0
:100B400009F400CFB2E0CB2ED12C39CF97FB092E80
:100B500007260AD077FD04D02ED006D000201AF444
:100B6000709561957F4F0895F6F7909581959F4F09
:100B70000895A1E21A2EAA1BBB1BFD010DC0AA1FDE
:100B8000BB1FEE1FFF1FA217B307E407F50720F0F6
:100B9000A21BB30BE40BF50B661F771F881F991F71
:100BA0001A9469F760957095809590959B01AC01BA
:100BB000BD01CF010895AA1BBB1B51E107C0AA1FAD
:100BC000BB1FA617B70710F0A61BB70B881F991FEE
:100BD0005A95A9F780959095BC01CD010895F89498
:020BE000FFCF45
:100BE2006F6E006F666600636F6E00726573000160
:060BF200000100000100FB
:00000001FF
