:100000000C9472000C9493000C9493000C94930045
:100010000C9493000C9493000C9493000C94930014
:100020000C9493000C9493000C9493000C94930004
:100030000C9493000C9493000C9493000C949300F4
:100040000C9493000C9493000C9493000C949300E4
:100050000C9493000C9493000C9493000C949300D4
:100060000C9493000C9493000C9493000C949300C4
:100070000C9493000C9493000C9493000C949300B4
:100080000C9493000C9493000C9493000C949300A4
:100090000C9429010C9455010C9493000C9493003A
:1000A0000C9493000C9493000C9493000C94930084
:1000B0000C9493000C9493000C9493000C94930074
:1000C0000C9493000C9493000C9493000C94930064
:1000D0000C9493000C9493000C9493000C94930054
:1000E0000C94930011241FBECFEFD1E2DEBFCDBF31
:1000F00000E00CBF12E0A0E0B2E0E0E9FEE000E0CA
:100100000BBF02C007900D92AE32B107D9F71BE0CA
:10011000AEE2B2E001C01D92AF32B107E1F70E943A
:10012000E1030C9446070C94000020E030E0682FB7
:1001300070E040E951E0CB01022E02C09595879511
:100140000A94E2F780FF11C0289A88EC90E0FA0147
:100150003197F1F70197D9F7289880EA9FE0FA01E3
:100160003197F1F70197D9F710C0299A88EC90E000
:10017000FA013197F1F70197D9F7299880EA9FE0C2
:10018000FA013197F1F70197D9F72F5F3F4F2830E8
:10019000310589F60895289A8AE08A95F1F728981A
:1001A00008952F9A08952F9808952F9A80E29EE43B
:1001B0000197F1F72F980895CF93DF93482FEB0124
:1001C000CE5FDE4F88819981C250D140019660E0B8
:1001D00071E00E94FD069C01FE01E050FF4F80810E
:1001E000918182179307D9F3DE01AE5FBE4FED9187
:1001F000FC911197EC0FFD1F408311963C932E93B9
:10020000DF91CF910895CF93DF93DC01EC01C050D3
:10021000DF4F28813981AE5FBE4F8D919C91119740
:10022000A250B1402817390711F4E0E00EC0E88170
:10023000F981EA0FFB1FE08188819981019660E0D6
:1002400071E00E94FD06998388838E2FDF91CF9104
:1002500008951F920F920FB60F920BB60F921124B2
:100260002F933F934F935F936F937F938F939F93BE
:10027000AF93BF93EF93FF938091CE006BE27AE050
:100280000E94DC00FF91EF91BF91AF919F918F9100
:100290007F916F915F914F913F912F910F900BBE86
:1002A0000F900FBE0F901F9018951F920F920FB6D0
:1002B0000F920BB60F9211242F933F934F935F939E
:1002C0006F937F938F939F93AF93BF93EF93FF931E
:1002D0008091290A90912A0A2091270A3091280AB0
:1002E00080509F4F821B930B60E071E00E94FD06DF
:1002F000892B39F087E299E00E9403018093CE00B8
:1003000005C08091C9008F7D8093C900FF91EF9156
:10031000BF91AF919F918F917F916F915F914F911D
:100320003F912F910F900BBE0F900FBE0F901F901B
:1003300018952091270A3091280A8091290A9091D6
:100340002A0A28173907A9F71092280A1092270AB3
:1003500010922A0A1092290A10922C0B10922B0B41
:1003600010922E0B10922D0B089510922C0B1092C0
:100370002B0B10922E0B10922D0B0895EF92FF92E3
:100380000F931F937C010E94990100E010E083E02D
:10039000EE0CFF1C001F111F8A95D1F760E074E27C
:1003A00084EF90E0A80197010E941007215030408F
:1003B0003093CD002093CC00E8ECF0E080818260A7
:1003C0008083E9ECF0E0808188698083EAECF0E0EA
:1003D00080818660808378941F910F91FF90EF90C9
:1003E00008950E9499011092C900089580912D0BE3
:1003F00090912E0B20912B0B30912C0B80509F4F06
:10040000821B930B60E071E00E94FD06089567E295
:1004100079E00E94DC00E9ECF0E08081806280837A
:100420000895CF93DF93EC0105C0219667E279E050
:100430000E94DC0088818823C1F78091C900806216
:100440008093C900DF91CF9108958BE29AE00E94DA
:1004500003010895EF92FF920F931F93CF93DF93C1
:100460008C017B01C0E0D0E007C00E942502F801AA
:10047000EC0FFD1F808321960E94F601892B31F03D
:10048000E114F10491F3CE15DF057CF30C0F1D1F71
:10049000F8011082CE01DF91CF911F910F91FF9053
:1004A000EF90089560E070E00E942A020895209184
:1004B0002D0B30912E0B80912B0B90912C0B28172C
:1004C000390711F480E00895E0912B0BF0912C0B8B
:1004D000E55DF54F808108952AB1FC01EE0FFF1F05
:1004E000E65DFD4F81E090E0008002C0880F991F1B
:1004F0000A94E2F7809528232AB92BB182238BB97D
:1005000008952AB1FC01EE0FFF1FE65DFD4F81E06B
:1005100090E0008002C0880F991F0A94E2F7282B10
:100520002AB92BB1282B2BB99AE69A95F1F72BB162
:10053000809582238BB90895FC01EE0FFF1FE65DC5
:10054000FD4F41E050E0008002C0440F551F0A9467
:10055000E2F760E020E030E075E3E1E0F0E0872FD3
:100560008A95F1F789B190E084239523892B41F096
:10057000CF01022E02C0880F991F0A94E2F7682B60
:10058000872F8A95F1F72F5F3F4F2830310539F7D4
:10059000862F0895CF93DF93EC010E948102CE0154
:1005A0000E946C0285E38A95F1F789B1FE01EE0F96
:1005B000FF1FE65DFD4FE08190E00E2E02C0959595
:1005C00087950A94E2F780FD03C02FEF3FEF12C03A
:1005D00021E030E002C0220F331FEA95E2F789B133
:1005E00090E082239323892BD1F7CE010E949C02B5
:1005F000282F30E0C901DF91CF910895E0E4F6E0C3
:100600003197F1F7F8942E9A2AE62A95F1F7009798
:1006100009F02E9825ED2A95F1F7892B19F020E0A5
:1006200030E00AC08CB1282F30E064E03695279581
:100630006A95E1F72170307085ED8A95F1F72E9A71
:1006400078948AE68A95F1F72E98C9010895269A3A
:100650002E986C9874980895EF92FF920F931F93C1
:10066000CF93DF93C0E0D0E071E0E72EF12C082FAC
:1006700010E0C7010C2E02C0880F991F0A94E2F700
:10068000802391230E94FE022196C830D10589F76C
:10069000DF91CF911F910F91FF90EF900895EF920E
:1006A000FF921F93CF93DF9310E0C0E0D0E0E1E032
:1006B000EE2EF12C80E090E00E94FE02892B41F0AA
:1006C000C7010C2E02C0880F991F0A94E2F7182B5D
:1006D0002196C830D10571F7812FDF91CF911F91FD
:1006E000FF90EF900895209129022F5F2F3F09F48A
:1006F00021E0822F90E00197FC01A3E0EE0FFF1FA5
:10070000AA95E1F7E81BF90BE25DFD4F8081882394
:1007100061F3209329020895EEE2F2E080818823BC
:1007200019F021E030E007C0379689E0E931F80799
:10073000A9F720E030E0C9010895FC0120E030E095
:1007400017C0B4E0220F331FBA95E1F7892F815407
:10075000863020F4892F90E0C79707C0892F8053F7
:100760008A3028F4892F90E0C097282B392B3196B6
:100770009081992331F7C9010895CF93DF93EC015C
:10078000FC012CE130E0DB01CA01022E04C0B69569
:10079000A795979587950A94D2F78F7090708A30B5
:1007A000910514F08F5B01C0805D80832450304040
:1007B00031968FEF2C3F380731F71886DF91CF91B4
:1007C00008952F923F924F925F926F927F928F92F5
:1007D0009F92AF92BF92CF92DF92EF92FF920F93D0
:1007E0001F93DF93CF93CDB7DEB7CE54D0400FB673
:1007F000F894DEBF0FBECDBF279A2F9870986898E7
:100800000E94270380E091EE0E94BE01A3E2B2E0C5
:1008100020E030E073E060E142E050E011C0019779
:10082000FC0113E0EE0FFF1F1A95E1F7E81BF90B2F
:10083000E25DFD4F70836483568345832F5F3F4F96
:100840008D919D91009759F7232B61F00E947303BE
:1008500082E090E090932109809320091092280271
:100860001092270280E29EE420E931E0F9013197FD
:10087000F1F70197D9F72F9A80E29EE40197F1F7FB
:100880002F98A0902702B0902802C0902009D09005
:1008900021093E010894611C711C85E0482E512CF1
:1008A0004C0E5D1E0EE0802E912C8C0E9D1E10E9CC
:1008B000212E11E0312EC114D10409F046C02F9A27
:1008C000A114B10479F42F9881E090E00E94FE0217
:1008D0008FEF0E942C038FEF0E942C038FEF0E945A
:1008E0002C03E7C080E090E00E94FE02892B09F40F
:1008F00029C12F98EEE2F2E020E030E0808179011A
:100900000894E11CF11C882329F0970137962E3FAB
:100910003105A1F70E2D8E2D0E942C03E0922902A5
:1009200010E001501040F801B3E0EE0FFF1FBA9540
:10093000E1F7E01BF10BE25DFD4F148282E090E0F5
:1009400096838583AA24BB24FAC091E0C916D104FA
:1009500009F0B3C00E944F03182F0E944F03282FA5
:1009600060912902E62EFF240894E108F108F701BE
:10097000A3E0EE0FFF1FAA95E1F7EE19FF09E25D74
:10098000FD4F85819681009731F5153009F48DC0B2
:10099000812F90E0A0E0B0E0DC019927882730E0CB
:1009A00040E050E0542F432F322F2227822B932BED
:1009B000A42BB52B262F30E040E050E0822B932B68
:1009C000A42BB52B8093220990932309A09324098B
:1009D000B093250951C08130910521F4173009F0F9
:1009E00064C04AC08230910561F51F3F11F481E077
:1009F00003C01E3F29F482E0808360E070E00EC0F7
:100A00008BEA91E0A0E0B0E0809322099093230963
:100A1000A0932409B093250961E070E0F70143E059
:100A2000EE0FFF1F4A95E1F7EE19FF09E25DFD4F5A
:100A30008DE0848383E090E096838583672BE1F4E7
:100A400034C08330910531F411838EE0848384E0D7
:100A500090E008C08430910541F412838FE08483D4
:100A600085E090E09683858320C00597F1F4138399
:100A700014821682158219C0F70133E0EE0FFF1FB2
:100A80003A95E1F7EE19FF09E25DFD4F1082EEE2C3
:100A9000F2E08081882359F4379699E0E931F9072B
:100AA000C1F721E0A22EB12C24C0223011F40E9403
:100AB000730392E0C92ED12C45C0E2E0CE16D104DA
:100AC00009F040C080912609882351F08FEF0E94E1
:100AD0002C03809126090E942C031092260932C013
:100AE000A114B10449F08FEF0E942C0386E00E940C
:100AF0002C03CC24DD2426C000912902802F0E94E3
:100B00002C0310E001501040780183E0EE0CFF1C34
:100B10008A95E1F7E01AF10A8EE292E0E80EF91EFA
:100B2000F7018481882329F00E942C03F7011482A5
:100B300006C081E00E942C03F7011682158211E0A5
:100B4000C12ED12CF89480E090E00E94CA02FFEF01
:100B50008F3F9F0769F00197FC01B3E0EE0FFF1F85
:100B6000BA95E1F7E81BF90BE25DFD4F88E084835D
:100B700081E090E00E94CA022FEF8F3F920769F058
:100B80000197FC01A3E0EE0FFF1FAA95E1F7E81B18
:100B9000F90BE25DFD4F89E0848378940E94F601B1
:100BA00004970CF425C10E942502C30163E070E0A4
:100BB0000E942A020B811B82C3010E949D03013304
:100BC000B9F48F3F910521F488E0809326090DC088
:100BD0000197FC0173E0EE0FFF1F7A95E1F7E81B28
:100BE000F90BE25DFD4F88E0848380E092E0F6C07F
:100BF0000033B9F48F3F910521F489E080932609F1
:100C00000DC00197FC0163E0EE0FFF1F6A95E1F74D
:100C1000E81BF90BE25DFD4F89E0848383E092E0FD
:100C2000DDC0073609F054C081E4F40111928A95C1
:100C3000E9F7740100E010E02FC08081882381F083
:100C400081E090E0022E02C0880F991F0A94E2F71B
:100C5000AA2797FDA095BA2F482B592B6A2B7B2BDF
:100C60002F5F3F4F37962032310531F0C901800F99
:100C7000911F8E3F91050CF3C7010E94BD032CE22A
:100C8000F7012087005E1F4F89E090E0E80EF91E13
:100C900091E00030190789F0F80153E0EE0FFF1FD3
:100CA0005A95E1F7E01BF10BE25DFD4F40E050E0AB
:100CB00060E070E020E030E0D9CFC4010E94110272
:100CC00088EE93E0F1013197F1F70197D9F788C0E9
:100CD000033641F487E092E00E94110241E0A42E25
:100CE000B12C7EC0023739F48BE092E00E941102F1
:100CF000AA24BB2475C00C3669F440912209509196
:100D000023096091240970912509C2010E94BD0345
:100D1000C20164C00936C1F401978C0133E0000FB1
:100D2000111F3A95E1F7081B190B025D1D4FF801E1
:100D300081810E940702F80182810E940702F80166
:100D400083810E9407024CC00337B9F48F3F91059D
:100D500021F48AE0809326090DC00197FC0123E06D
:100D6000EE0FFF1F2A95E1F7E81BF90BE25DFD4F3F
:100D70008AE084838FE092E031C00136B9F48F3F7E
:100D8000910521F48BE0809326090DC00197FC01A9
:100D900003E0EE0FFF1F0A95E1F7E81BF90BE25D98
:100DA000FD4F8BE0848387E192E018C00236C1F4E6
:100DB0008F3F910521F48CE0809326090DC00197A7
:100DC000FC0113E0EE0FFF1F1A95E1F7E81BF90B8A
:100DD000E25DFD4F8CE084838DE192E00E94110280
:100DE00010922C0B10922B0B10922E0B10922D0B9D
:100DF00080EA9FE00197F1F75ECD97FB092E072669
:100E00000AD077FD04D02ED006D000201AF47095B9
:100E100061957F4F0895F6F7909581959F4F0895BE
:100E2000A1E21A2EAA1BBB1BFD010DC0AA1FBB1FEE
:100E3000EE1FFF1FA217B307E407F50720F0A21B60
:100E4000B30BE40BF50B661F771F881F991F1A94CD
:100E500069F760957095809590959B01AC01BD01F7
:100E6000CF010895AA1BBB1B51E107C0AA1FBB1FDE
:100E7000A617B70710F0A61BB70B881F991F5A9526
:100E8000A9F780959095BC01CD010895F894FFCF06
:100E90006F6E006F666600636F6E0072657300733D
:100EA000746F7070656400646972206100646972B7
:0E0EB000206200270000000100010000010088
:00000001FF
