:100000000C9472000C94DF000C9493000C949300F9
:100010000C9493000C94F3000C9493000C949300B4
:100020000C9493000C9493000C9493000C94930004
:100030000C9493000C9493000C9493000C949300F4
:100040000C9493000C9493000C9493000C949300E4
:100050000C9493000C9493000C9493000C949300D4
:100060000C9493000C9493000C9493000C949300C4
:100070000C9493000C9493000C9493000C949300B4
:100080000C9493000C9493000C9493000C949300A4
:100090000C9493000C9493000C9493000C94930094
:1000A0000C9493000C9493000C9493000C94930084
:1000B0000C9493000C9493000C9493000C94930074
:1000C0000C9493000C9493000C9493000C94930064
:1000D0000C9493000C9493000C9493000C94930054
:1000E0000C94930011241FBECFEFD1E2DEBFCDBF31
:1000F00000E00CBF12E0A0E0B2E0E2E8F3E000E0D4
:100100000BBF02C007900D92A030B107D9F712E0E3
:10011000A0E0B2E001C01D92A430B107E1F70E9457
:100120007E010C94BF010C9400002F9A08952F9823
:1001300008952F9A80E29EE40197F1F72F98089591
:100140008091020290910302892B19F420E030E0A3
:1001500006C0109203021092020221E030E0C901B1
:100160000895509858980895509A589A80EA9FE0B8
:100170000197F1F75898089540E020E030E0E0EA78
:10018000FFE061E070E0CF010197F1F7809102029A
:1001900090910302892B61F01092030210920202E7
:1001A000CB01022E02C0880F991F0A94E2F7482B58
:1001B0002F5F3F4F2830310531F7842F08951F926C
:1001C0000F920FB60F9211248F939F9381E090E0CE
:1001D00090930302809302029F918F910F900FBE24
:1001E0000F901F9018951F920F920FB60F92112427
:1001F0008F939F9381E090E090930102809300029F
:100200009F918F910F900FBE0F901F9018952E9A6F
:10021000E0E2F3E03197F1F7109201021092000250
:100220002E9825E32A95F1F7009709F02E9AE0E23F
:10023000F3E03197F1F72E98892B19F020E030E0A8
:100240000AC0809100029091010220E030E0892BE9
:1002500011F021E030E0C9010895269A2E986C989B
:1002600074980895EF92FF920F931F93CF93DF93AB
:10027000182F81E090E00E940701C0E0D0E081E00B
:10028000E82EF12C012F10E0C7010C2E02C0880FC0
:10029000991F0A94E2F7802391230E940701219677
:1002A000C830D10589F7DF91CF911F910F91FF9051
:1002B000EF900895EF92FF921F93CF93DF9310E09A
:1002C000C0E0D0E091E0E92EF12C80E090E00E94C7
:1002D0000701892B41F0C7010C2E02C0880F991F1E
:1002E0000A94E2F7182B2196C830D10571F7812FB7
:1002F000DF91CF911F91FF90EF900895EF92FF92C1
:100300000F931F93CF93DF93F894279A2F980E940F
:100310002D0182E08093690083E080936A0081E18F
:100320008DBB7894EE24FF248701C0E2DEE40894BC
:10033000E11CF11C011D111D89EBE8168BE0F8068C
:1003400080E0080780E01807A8F082E30E943201ED
:1003500080E090E00E940701892B49F00E945A0139
:10036000853129F42F9ACE010197F1F72F98EE24C9
:10037000FF24870180E090E00E940701D8CFF89425
:02038000FFCFAD
:00000001FF
