:100000000C9472000C9415010C9493000C949300C2
:100010000C9493000C9429010C9493000C9493007D
:100020000C9493000C9493000C9493000C94930004
:100030000C9493000C9493000C9493000C949300F4
:100040000C9493000C9493000C9493000C949300E4
:100050000C9493000C9493000C9493000C949300D4
:100060000C9493000C9493000C9493000C949300C4
:100070000C9493000C9493000C9493000C949300B4
:100080000C9493000C9493000C9493000C949300A4
:100090000C9493000C9493000C9493000C94930094
:1000A0000C9493000C9493000C9493000C94930084
:1000B0000C9493000C9493000C9493000C94930074
:1000C0000C9493000C9493000C9493000C94930064
:1000D0000C9493000C9493000C9493000C94930054
:1000E0000C94930011241FBECFEFD1E2DEBFCDBF31
:1000F00000E00CBF12E0A0E0B2E0E8EEF3E000E0C8
:100100000BBF02C007900D92A030B107D9F712E0E3
:10011000A0E0B2E001C01D92A430B107E1F70E9457
:10012000B4010C94F2010C94000020E030E0682F40
:1001300070E040E951E0CB01022E02C09595879511
:100140000A94E2F780FF11C0289A88EC90E0FA0147
:100150003197F1F70197D9F7289880EA9FE0FA01E3
:100160003197F1F70197D9F710C0299A88EC90E000
:10017000FA013197F1F70197D9F7299880EA9FE0C2
:10018000FA013197F1F70197D9F72F5F3F4F2830E8
:10019000310589F608952F9A08952F9808952F9A7A
:1001A00080E29EE40197F1F72F9808958091020272
:1001B00090910302892B19F420E030E006C01092E0
:1001C00003021092020221E030E0C9010895509824
:1001D00058980895509A589A80EA9FE00197F1F74D
:1001E0005898089540E020E030E0E0EAFFE061E068
:1001F00070E0CF010197F1F7809102029091030224
:10020000892B61F01092030210920202CB01022EA0
:1002100002C0880F991F0A94E2F7482B2F5F3F4FC7
:100220002830310531F7842F08951F920F920FB6B1
:100230000F9211248F939F9381E090E0909303029B
:10024000809302029F918F910F900FBE0F901F908D
:1002500018951F920F920FB60F9211248F939F93B0
:1002600081E090E090930102809300029F918F9132
:100270000F900FBE0F901F9018952E9AE0E2F3E0BA
:100280003197F1F710920102109200022E9825E3A7
:100290002A95F1F7009709F02E9AE0E2F3E0319702
:1002A000F1F72E98892B19F020E030E00AC08091F8
:1002B00000029091010220E030E0892B11F021E052
:1002C00030E0C9010895269A2E986C987498089584
:1002D000EF92FF920F931F93CF93DF93182F81E03C
:1002E00090E00E943D01C0E0D0E081E0E82EF12CDA
:1002F000012F10E0C7010C2E02C0880F991F0A942D
:10030000E2F7802391230E943D012196C830D10558
:1003100089F7DF91CF911F910F91FF90EF90089592
:10032000EF92FF921F93CF93DF9310E0C0E0D0E0F5
:1003300091E0E92EF12C80E090E00E943D01892BB4
:1003400041F0C7010C2E02C0880F991F0A94E2F7F2
:10035000182B2196C830D10571F7812FDF91CF91ED
:100360001F91FF90EF900895EF92FF920F931F93CC
:10037000CF93DF93F894279A2F980E94630182E02D
:100380008093690083E080936A0081E18DBB78945B
:1003900028E6E22E20E1F22E00E911E0C0E2DEE4E0
:1003A0000E94EA0050985898C7010197F1F7809190
:1003B000020290910302892B99F31092030210928A
:1003C00002020E94F200823329F42F9ACE01019793
:1003D000F1F72F9880E197E2F8013197F1F7019753
:0803E000F9F2FACFF894FFCF07
:00000001FF
