:100000000C9472000C9493000C9493000C94930045
:100010000C9493000C9493000C9493000C94930014
:100020000C9493000C9493000C9493000C94930004
:100030000C9493000C9493000C9493000C949300F4
:100040000C9493000C9493000C9493000C949300E4
:100050000C9493000C9493000C9493000C949300D4
:100060000C9493000C9493000C9493000C949300C4
:100070000C9493000C9493000C9493000C949300B4
:100080000C9493000C9493000C9493000C949300A4
:100090000C9429010C9455010C9493000C9493003A
:1000A0000C9493000C9493000C9493000C94930084
:1000B0000C9493000C9493000C9493000C94930074
:1000C0000C9493000C9493000C9493000C94930064
:1000D0000C9493000C9493000C9493000C94930054
:1000E0000C94930011241FBECFEFD1E2DEBFCDBF31
:1000F00000E00CBF12E0A0E0B2E0EAEDFDE000E0BD
:100100000BBF02C007900D92AA32B107D9F719E0D0
:10011000AAE2B2E001C01D92A033B107E1F70E944C
:10012000D3030C94EB060C94000020E030E0682F21
:1001300070E040E951E0CB01022E02C09595879511
:100140000A94E2F780FF11C0289A88EC90E0FA0147
:100150003197F1F70197D9F7289880EA9FE0FA01E3
:100160003197F1F70197D9F710C0299A88EC90E000
:10017000FA013197F1F70197D9F7299880EA9FE0C2
:10018000FA013197F1F70197D9F72F5F3F4F2830E8
:10019000310589F60895289A8AE08A95F1F728981A
:1001A00008952F9A08952F9808952F9A80E29EE43B
:1001B0000197F1F72F980895CF93DF93482FEB0124
:1001C000CE5FDE4F88819981C250D140019660E0B8
:1001D00071E00E94A2069C01FE01E050FF4F808169
:1001E000918182179307D9F3DE01AE5FBE4FED9187
:1001F000FC911197EC0FFD1F408311963C932E93B9
:10020000DF91CF910895CF93DF93DC01EC01C050D3
:10021000DF4F28813981AE5FBE4F8D919C91119740
:10022000A250B1402817390711F4E0E00EC0E88170
:10023000F981EA0FFB1FE08188819981019660E0D6
:1002400071E00E94A206998388838E2FDF91CF915F
:1002500008951F920F920FB60F920BB60F921124B2
:100260002F933F934F935F936F937F938F939F93BE
:10027000AF93BF93EF93FF938091CE006CE278E051
:100280000E94DC00FF91EF91BF91AF919F918F9100
:100290007F916F915F914F913F912F910F900BBE86
:1002A0000F900FBE0F901F9018951F920F920FB6D0
:1002B0000F920BB60F9211242F933F934F935F939E
:1002C0006F937F938F939F93AF93BF93EF93FF931E
:1002D00080912A0890912B082091280830912908B4
:1002E00080509F4F821B930B60E071E00E94A2063A
:1002F000892B39F088E297E00E9403018093CE00B9
:1003000005C08091C9008F7D8093C900FF91EF9156
:10031000BF91AF919F918F917F916F915F914F911D
:100320003F912F910F900BBE0F900FBE0F901F901B
:100330001895209128083091290880912A089091D9
:100340002B0828173907A9F71092290810922808B6
:1003500010922B0810922A0810922D0910922C0945
:1003600010922F0910922E09089510922D091092C3
:100370002C0910922F0910922E090895EF92FF92E6
:100380000F931F937C010E94990100E010E083E02D
:10039000EE0CFF1C001F111F8A95D1F760E074E27C
:1003A00084EF90E0A80197010E94B50621503040EB
:1003B0003093CD002093CC00E8ECF0E080818260A7
:1003C0008083E9ECF0E0808188698083EAECF0E0EA
:1003D00080818660808378941F910F91FF90EF90C9
:1003E00008950E9499011092C900089580912E09E4
:1003F00090912F0920912C0930912D0980509F4F09
:10040000821B930B60E071E00E94A206089568E2EF
:1004100077E00E94DC00E9ECF0E08081806280837C
:100420000895CF93DF93EC0105C0219668E277E051
:100430000E94DC0088818823C1F78091C900806216
:100440008093C900DF91CF910895CF93DF93EC01A2
:1004500004C068E277E00E94DC00FE0121968491EE
:100460008823B9F78091C90080628093C900DF9129
:10047000CF9108958CE298E00E9403010895CF93F4
:10048000DF93EC010E943A0289938823D9F7DF9128
:10049000CF91089520912E0930912F0980912C0938
:1004A00090912D092817390711F480E00895E09103
:1004B0002C09F0912D09E45DF74F808108952AB150
:1004C000FC01EE0FFF1FEA5DFD4F81E090E0008030
:1004D00002C0880F991F0A94E2F7809528232AB951
:1004E0002BB182238BB908952AB1FC01EE0FFF1FB7
:1004F000EA5DFD4F81E090E0008002C0880F991F07
:100500000A94E2F7282B2AB92BB1282B2BB99AE6AB
:100510009A95F1F72BB1809582238BB90895FC0150
:10052000EE0FFF1FEA5DFD4F41E050E0008002C08A
:10053000440F551F0A94E2F760E020E030E075E3D5
:10054000E1E0F0E0872F8A95F1F789B190E084230C
:100550009523892B41F0CF01022E02C0880F991FED
:100560000A94E2F7682B872F8A95F1F72F5F3F4FA8
:100570002830310539F7862F0895CF93DF93EC01AA
:100580000E947402CE010E945F0285E38A95F1F712
:1005900089B1FE01EE0FFF1FEA5DFD4FE08190E0A3
:1005A0000E2E02C0959587950A94E2F780FD03C050
:1005B0002FEF3FEF12C021E030E002C0220F331FC7
:1005C000EA95E2F789B190E082239323892BD1F752
:1005D000CE010E948F02282F30E0C901DF91CF9118
:1005E0000895E0E4F6E03197F1F7F8942E9A2AE6C0
:1005F0002A95F1F7009709F02E9825ED2A95F1F745
:10060000892B19F020E030E00AC08CB1282F30E0AF
:1006100064E0369527956A95E1F72170307085ED95
:100620008A95F1F72E9A78948AE68A95F1F72E98B2
:10063000C9010895269A2E9A6C9874980895EF929D
:10064000FF920F931F93CF93DF93C0E0D0E071E050
:10065000E72EF12C082F10E0C7010C2E02C0880FE6
:10066000991F0A94E2F7802391230E94F1022196B8
:10067000C830D10589F7DF91CF911F910F91FF907D
:10068000EF900895EF92FF921F93CF93DF9310E0C6
:10069000C0E0D0E0E1E0EE2EF12C80E090E00E949E
:1006A000F102892B41F0C7010C2E02C0880F991F5F
:1006B0000A94E2F7182B2196C830D10571F7812FE3
:1006C000DF91CF911F91FF90EF9008952091250227
:1006D0002F5F2F3F09F421E0822F90E00197FC016A
:1006E000EE0FFF1FEE0FFF1FE80FF91FE45DFD4F38
:1006F0008081882369F3209325020895ECE2F2E0DB
:100700008081882319F021E030E007C0359687E02A
:10071000ED31F807A9F720E030E0C9010895FC01A8
:1007200020E030E017C0B4E0220F331FBA95E1F7A4
:10073000892F8154863020F4892F90E0C79707C015
:10074000892F80538A3028F4892F90E0C097282B76
:10075000392B31969081992331F7C9010895CF93B0
:10076000DF93EC01FC012CE130E0DB01CA01022E39
:1007700004C0B695A795979587950A94D2F78F7080
:1007800090708A30910514F08F5B01C0805D80838A
:100790002450304031968FEF2C3F380731F71886C0
:1007A000DF91CF9108952F923F924F925F926F9277
:1007B0007F928F929F92AF92BF92CF92DF92EF92F1
:1007C000FF920F931F93DF93CF93CDB7DEB7CD5436
:1007D000D0400FB6F894DEBF0FBECDBF279A2F983A
:1007E000709868980E941A0380E091EE0E94BE0102
:1007F00088E893E120E931E0F9013197F1F70197B9
:10080000D9F7A0902302B0902402C0902A02D09081
:100810002B02B1E04B2E512C1E010894211C311CDF
:10082000A4E06A2E712C6C0E7D1EFDE08F2E912CA3
:100830008C0E9D1EC114D10409F05AC02F9AA11428
:10084000B104C1F42F9881E090E00E94F1028FEF93
:100850000E941F038FEF0E941F038FEF0E941F0350
:100860008FEF0E941F038FEF0E941F038FEF0E94E4
:100870001F0364C280E090E00E94F102892B09F41A
:10088000FAC02F98ECE2F2E020E030E080818901AC
:100890000F5F1F4F882329F0980135960E3F1105F1
:1008A000A9F7E02E802F0E941F0300932502FF244A
:1008B0000894E108F1088701000F111F000F111FB4
:1008C0000E0D1F1D045D1D4FF80114820E9442038E
:1008D000F80181830E944203F80182830E9442034F
:1008E000F8018383F2E0F0932207AA24BB24C0C05E
:1008F00021E0C216D10409F07CC00E944203182FE7
:100900000E944203282F60912207662339F5153093
:1009100009F411C2812F90E0A0E0B0E0DC0199273A
:10092000882730E040E050E0542F432F322F222719
:10093000822B932BA42BB52B2091250230E040E095
:1009400050E0822B932BA42BB52B809323079093FD
:100950002407A0932507B09326072CC0613021F40B
:10096000173009F0E8C126C0623009F0E4C11F3F2A
:1009700081F48091250290E00197FC01EE0FFF1FAA
:10098000EE0FFF1FE80FF91FE45DFD4F81E080834C
:10099000D2C11E3F79F48091250290E00197FC01BD
:1009A000EE0FFF1FEE0FFF1FE80FF91FE45DFD4F75
:1009B0006083C1C18091250290E00197FC01EE0F98
:1009C000FF1FEE0FFF1FE80FF91FE45DFD4F1082C0
:1009D000ECE2F2E08081882349F4359687E0ED313E
:1009E000F807C1F791E0A92EB12C1EC00E94660342
:1009F000A5C192E0C916D104F1F58091270788239B
:100A000051F08FEF0E941F03809127070E941F0360
:100A10001092270730C0A114B10449F08FEF0E9453
:100A20001F0386E00E941F03CC24DD2424C0009114
:100A30002502802F0E941F0310E001501040780112
:100A4000EE0CFF1CEE0CFF1CE00EF11EECE2F2E0DF
:100A5000EE0EFF1EF7018481882329F00E941F03F8
:100A6000F701148205C081E00E941F031092220743
:100A700001E0C02ED12CF89480E090E00E94BD02ED
:100A8000FFEF8F3F9F0761F00197FC01EE0FFF1F03
:100A9000EE0FFF1FE80FF91FE45DFD4F88E0848330
:100AA00081E090E00E94BD022FEF8F3F920761F03E
:100AB0000197FC01EE0FFF1FEE0FFF1FE80FF91F5C
:100AC000E45DFD4F89E0848378940E94F6010497E9
:100AD0000CF42CC10E943A020E943A0289830E94BF
:100AE0003A028A831B82C1010E948F037C010E940B
:100AF0003A028133C1F48FEFE816F10421F488E063
:100B0000809327070DC0C7010197FC01EE0FFF1F5F
:100B1000EE0FFF1FE80FF91FE45DFD4F88E08483AF
:100B200080E092E0F9C08033C1F49FEFE916F10450
:100B300021F489E0809327070DC0C7010197FC01CC
:100B4000EE0FFF1FEE0FFF1FE80FF91FE45DFD4FD3
:100B500089E0848383E092E0DFC0873609F053C0E8
:100B600081E4F40111928A95E9F7740100E010E044
:100B70002EC08081882379F0C201022E02C0880F26
:100B8000991F0A94E2F7AA2797FDA095BA2F482B40
:100B9000592B6A2B7B2B2F5F3F4F35962032310527
:100BA00031F0C901800F911F8E3F910514F3C701E9
:100BB0000E94AF032CE2F7012087005E1F4F89E0FF
:100BC00090E0E80EF91E91E00030190781F0F8017D
:100BD000EE0FFF1FEE0FFF1FE00FF11FE45DFD4F53
:100BE00040E050E060E070E020E030E0DACFC401A7
:100BF0000E94110288EE93E0E0E9F1E03197F1F70D
:100C00000197D1F78BC0833641F487E092E00E94D0
:100C1000110251E0A52EB12C81C0823739F48BE04E
:100C200092E00E941102AA24BB2478C08C3669F499
:100C30004091230750912407609125077091260762
:100C4000C3010E94AF03C30167C08936C1F4C70165
:100C500001978C01000F111F000F111F080F191FA2
:100C6000045D1D4FF80181810E940702F801828115
:100C70000E940702F80183810E9407024FC0833758
:100C8000C1F4FFEFEF16F10421F48AE08093270707
:100C90000DC0C7010197FC01EE0FFF1FEE0FFF1FF4
:100CA000E80FF91FE45DFD4F8AE084838FE092E056
:100CB00033C08136C1F42FEFE216F10421F48BE04A
:100CC000809327070DC0C7010197FC01EE0FFF1F9E
:100CD000EE0FFF1FE80FF91FE45DFD4F8BE08483EB
:100CE00087E192E019C08236C9F48FEFE816F1046B
:100CF00021F48CE0809327070DC0C7010197FC0108
:100D0000EE0FFF1FEE0FFF1FE80FF91FE45DFD4F11
:100D10008CE084838DE192E00E94110210922D09F3
:100D200010922C0910922F0910922E0980EA9FE050
:100D30000197F1F77FCD223009F458CE12E0C12E91
:100D4000D12C99CE97FB092E07260AD077FD04D027
:100D50002ED006D000201AF4709561957F4F08952B
:100D6000F6F7909581959F4F0895A1E21A2EAA1B40
:100D7000BB1BFD010DC0AA1FBB1FEE1FFF1FA2174B
:100D8000B307E407F50720F0A21BB30BE40BF50B48
:100D9000661F771F881F991F1A9469F760957095D1
:100DA000809590959B01AC01BD01CF010895AA1BD0
:100DB000BB1B51E107C0AA1FBB1FA617B70710F046
:100DC000A61BB70B881F991F5A95A9F78095909578
:0A0DD000BC01CD010895F894FFCF97
:100DDA006F6E006F666600636F6E007265730073F4
:100DEA00746F70706564006469722061006469726E
:0A0DFA00206200010001000001006A
:00000001FF
