:100000000C9472000C9493000C9493000C94930045
:100010000C9493000C9493000C9493000C94930014
:100020000C9493000C9493000C9493000C94930004
:100030000C9493000C9493000C9493000C949300F4
:100040000C9493000C94C1020C9493000C949300B4
:100050000C9493000C9493000C9493000C949300D4
:100060000C9493000C94F5000C9421010C949300D3
:100070000C9493000C9493000C9493000C949300B4
:100080000C9493000C9493000C9493000C949300A4
:100090000C9493000C9493000C9493000C94930094
:1000A0000C9493000C9493000C9493000C94930084
:1000B0000C9493000C9493000C9493000C94930074
:1000C0000C9493000C9493000C9493000C94930064
:1000D0000C9493000C9493000C9493000C94930054
:1000E0000C94930011241FBECFEFD1E2DEBFCDBF31
:1000F00000E00CBF12E0A0E0B2E0E6EEFBE000E0C2
:100100000BBF02C007900D92A830B107D9F714E0D9
:10011000A8E0B2E001C01D92A033B107E1F70E9450
:10012000FA040C94F1050C9400002F9A08952F986E
:100130000895279A2F9808952F9A84EF91E020E947
:1001400031E0F9013197F1F70197D9F72F98089528
:10015000CF93DF93482FEB01CE5FDE4F88819981EB
:10016000C250D140019660E071E00E94A8059C0158
:10017000FE01E050FF4F8081918182179307D9F3F0
:10018000DE01AE5FBE4FED91FC911197EC0FFD1FAC
:10019000408311963C932E93DF91CF910895CF9396
:1001A000DF93DC01EC01C050DF4F28813981AE5F65
:1001B000BE4F8D919C911197A250B14028173907DD
:1001C00011F4E0E00EC0E881F981EA0FFB1FE08145
:1001D00088819981019660E071E00E94A805998369
:1001E00088838E2FDF91CF9108951F920F920FB6C3
:1001F0000F920BB60F9211242F933F934F935F935F
:100200006F937F938F939F93AF93BF93EF93FF93DE
:100210008091C60060E273E00E94A800FF91EF9118
:10022000BF91AF919F918F917F916F915F914F910E
:100230003F912F910F900BBE0F900FBE0F901F900C
:1002400018951F920F920FB60F920BB60F921124B2
:100250002F933F934F935F936F937F938F939F93CE
:10026000AF93BF93EF93FF9380911E0390911F0371
:1002700020911C0330911D0380509F4F821B930BD4
:1002800060E071E00E94A805892B39F08CE192E0D2
:100290000E94CF008093C60005C08091C1008F7D71
:1002A0008093C100FF91EF91BF91AF919F918F918A
:1002B0007F916F915F914F913F912F910F900BBE66
:1002C0000F900FBE0F901F90189520911C03309136
:1002D0001D0380911E0390911F0328173907A9F76A
:1002E00010921D0310921C0310921F0310921E0304
:1002F00010922104109220041092230410922204E0
:100300000895109221041092200410922304109258
:1003100022040895EF92FF920F931F937C010E9495
:10032000650100E010E083E0EE0CFF1C001F111FD0
:100330008A95D1F760E074E284EF90E0A80197011C
:100340000E94BB05215030403093C5002093C4006B
:10035000E0ECF0E0808182608083E1ECF0E080817D
:1003600088698083E2ECF0E0808186608083789405
:100370001F910F91FF90EF9008950E9465011092D8
:10038000C1000895809122049091230420912004BB
:100390003091210480509F4F821B930B60E071E0ED
:1003A0000E94A80508956CE172E00E94A800E1ECAB
:1003B000F0E08081806280830895CF93DF93EC0129
:1003C00005C021966CE172E00E94A8008881882314
:1003D000C1F78091C10080628093C100DF91CF910D
:1003E000089580E293E00E94CF0008950E94C20128
:1003F000892BE1F30E94F1010895EF92FF920F9390
:100400001F93CF93DF938C017B01C0E0D0E007C046
:100410000E94F101F801EC0FFD1F808321960E94DC
:10042000C201892B31F0E114F10491F3CE15DF05FF
:100430007CF30C0F1D1FF8011082CE01DF91CF91CC
:100440001F910F91FF90EF90089560E070E00E947F
:10045000FD0108952091220430912304809120040D
:10046000909121042817390711F480E00895E09154
:100470002004F0912104E05EFC4F8081089547B193
:10048000E0911602F0911702A4E0B2E0EE0FFF1F18
:10049000EA0FFB1F21E030E0C901008002C0880F95
:1004A000991F0A94E2F78095842387B988B1E09177
:1004B0001602F0911702EE0FFF1FEA0FFB1F0080DC
:1004C00002C0220F331F0A94E2F72095282328B98F
:1004D00026B1809116029091170230E0880F991F83
:1004E000A80FB91F0C9002C0359527950A94E2F722
:1004F00021703070C9010895809116029091170201
:10050000019662E070E00E94A80590931702809324
:10051000160208958EE190E0909389008093880000
:10052000109280008CE08093810082E080936F00C5
:10053000269A6D9810922504109224041092270494
:10054000109226040895282F8091020290910302B0
:10055000892BD1F3109203021092020220932804F7
:100560006093290450932B0440932A0410921B0299
:1005700010921A0281E090E0909319028093180281
:1005800008951F920F920FB60F920BB60F9211247F
:10059000EF92FF920F931F932F933F934F935F938D
:1005A0006F937F938F939F93AF93BF93EF93FF933B
:1005B0008091100290911102892B09F4BEC08091A4
:1005C000120290911302892B59F547B1E09116025E
:1005D000F0911702EE0FFF1FEC5FFD4F21E030E0BE
:1005E000C901008002C0880F991F0A94E2F7482BC6
:1005F00047B948B1E0911602F0911702EE0FFF1FC4
:10060000EC5FFD4FC901008002C0880F991F0A945A
:10061000E2F7482B48B930931302209312028DC0A1
:100620008091120290911302019729F40E943F02D7
:1006300082E090E03EC080911202909113020297F6
:1006400081F40E943F02892B09F471C083E090E09D
:1006500090931302809312021092150210921402CA
:100660006CC0809112029091130203973CF180912B
:100670001202909113020B970CF500911402109145
:1006800015020E943F022091120230911302235062
:10069000304002C0880F991F2A95E2F7082B192BCA
:1006A000109315020093140280911202909113028C
:1006B000019690931302809312023FC00E943F0262
:1006C000892BA9F1E0911602F0911702EE0FFF1F9E
:1006D000EC5DFB4F208131818091140290911502D5
:1006E0002817390721F180911602909117029093F3
:1006F0000D0280930C028091140290911502909348
:100700000F0280930E02E0911602F0911702809181
:10071000140290911502EE0FFF1FEC5DFB4F9183C9
:10072000808381E090E090930B0280930A02109204
:100730001302109212020E947C028091000290919A
:100740000102892B09F448C0809118029091190286
:10075000019709F0B0C080911A0290911B02892B79
:1007600059F180911A0290911B02019739F1809101
:100770001A0290911B0202971CF180911A0290912B
:100780001B028297E8F48091280490912904A0919B
:100790002A04B0912B0420911A0230911B0222509E
:1007A000304004C0B695A795979587952A95D2F7BE
:1007B00081709070892B11F02E9A68C02E9866C0B7
:1007C0002E9881E090E090930302809302021092B1
:1007D0001902109218025AC0209118023091190281
:1007E0002230310509F067C080911A0290911B02F6
:1007F000892B21F42E9A81E090E04DC080911A025D
:1008000090911B02019719F4659B55C081C080919E
:100810001A0290911B0202970CF442C080911A02B6
:1008200090911B028297E0F5E0902C04F0902D044B
:1008300000912E0410912F048CB140911A02509116
:100840001B0290E075E0969587957A95E1F721E097
:1008500030E082279327A0E0B0E081709070A07014
:10086000B0704250504004C0880F991FAA1FBB1F90
:100870004A95D2F78E299F29A02BB12B80932C0467
:1008800090932D04A0932E04B0932F0480911A020C
:1008900090911B02019690931B0280931A020BC049
:1008A0002E9881E090E090930902809308021092C4
:1008B000190210921802809100029091010221E029
:1008C00030E0822793279093010280930002809169
:1008D0001002909111028227932790931102809326
:1008E0001002FF91EF91BF91AF919F918F917F91F6
:1008F0006F915F914F913F912F911F910F91FF90B9
:10090000EF900F900BBE0F900FBE0F901F90189599
:1009100010922C0410922D0410922E0410922F0489
:1009200030931B0220931A02C6CF282F80538A309F
:1009300020F430E02053304012C0822F81568630A0
:1009400020F430E0275530400AC0822F8154863091
:1009500018F020E030E003C030E027533040862F0D
:1009600080538A3020F470E06053704012C0862FAC
:100970008156863020F470E0675570400AC0862F9B
:100980008154863018F060E070E003C070E0675377
:10099000704084E0220F331F8A95E1F7262B372B16
:1009A000C9010895FC019B01207F307094E03595CA
:1009B00027959A95E1F72A30310518F4822F805D4A
:1009C00008C0C9010A97069710F080E302C0822F81
:1009D000895A80836F7070706A30710510F4605DA1
:1009E00007C0CB010A97069710F060E301C0695A6F
:1009F000618308953F924F925F926F927F928F92A0
:100A00009F92AF92BF92CF92DF92EF92FF920F939D
:100A10001F93DF93CF93CDB7DEB72A970FB6F89425
:100A2000DEBF0FBECDBFF894279A2F980E948A028E
:100A300080E091EE0E948A017894CC24CA943324F9
:100A4000339451E0A52EB12C42E0442E33E0532ED6
:100A50004E010894811C911C23E0622E712C6C0EB7
:100A60007D1E0E94F101813379F480910202909100
:100A70000302892BD1F31092030210920202C0925A
:100A800028043092290410C0803399F48091020226
:100A900090910302892BD1F310920302109202026B
:100AA000C09228044092290410922B0410922A0428
:100AB00029C08D3679F50E94F601F82E0E94F601C4
:100AC000D82E0E94F601E82E809102029091030236
:100AD000892BD1F31092030210920202C0922804D3
:100AE0005092290480E36F2D0E949504182F8D2DBC
:100AF0006E2D0E94950400E0802B912B90932B0487
:100B000080932A0410921B0210921A02B0921902CA
:100B1000A092180280910A0290910B02892B09F48D
:100B2000A0CF10920B0210920A0260910C027091F9
:100B30000D02C4010E94D20460910E0270910F0256
:100B4000C3010E94D2041D82C4010E94DD0189CF2D
:100B500097FB092E07260AD077FD04D02ED006D0A9
:100B600000201AF4709561957F4F0895F6F79095DF
:100B700081959F4F0895A1E21A2EAA1BBB1BFD0170
:100B80000DC0AA1FBB1FEE1FFF1FA217B307E4076C
:100B9000F50720F0A21BB30BE40BF50B661F771FC4
:100BA000881F991F1A9469F76095709580959095A4
:100BB0009B01AC01BD01CF010895AA1BBB1B51E1F4
:100BC00007C0AA1FBB1FA617B70710F0A61BB70BBD
:100BD000881F991F5A95A9F780959095BC01CD0162
:060BE0000895F894FFCF18
:080BE600010001000000010004
:00000001FF
