:100000000C9434000C9489000C949D000C944600D0
:100010000C9446000C9446000C9446000C94460048
:100020000C9446000C9446000C9446000C94460038
:100030000C9446000C9446000C9446000C94460028
:100040000C9446000C9446000C9446000C94460018
:100050000C9446000C9446000C9446000C94460008
:100060000C9446000C94460011241FBECFEFD8E03C
:10007000DEBFCDBF11E0A0E0B1E001C01D92A43011
:10008000B107E1F70E946A010C948D010C94000005
:1000900020E030E0682F70E040E951E0CB01022E13
:1000A00002C0959587950A94E2F780FF11C0289ABF
:1000B00088EC90E0FA013197F1F70197D9F7289889
:1000C00080EA9FE0FA013197F1F70197D9F710C064
:1000D000299A88EC90E0FA013197F1F70197D9F766
:1000E000299880EA9FE0FA013197F1F70197D9F753
:1000F0002F5F3F4F2830310589F608952D9A0895D6
:100100002D9808952D9A80E29EE40197F1F72D989D
:1001100008951F920F920FB60F9211248F939F9301
:1001200081E090E090930101809300019F918F9175
:100130000F900FBE0F901F9018951F920F920FB641
:100140000F9211248F939F9381E090E0909303018D
:10015000809302019F918F910F900FBE0F901F907F
:1001600018958091000190910101892B19F420E0EC
:1001700030E006C0109201011092000121E030E051
:10018000C901089552985A980895529A5A9A80EA45
:100190009FE00197F1F75A980895EF92FF920F931D
:1001A0001F93CF93DF93C0E0D0E0082F10E080EAE8
:1001B000E82E8FE0F82EC8010C2E02C09595879589
:1001C0000A94E2F780FF03C00E94C50003C0C70184
:1001D0000197F1F72196C830D10569F7DF91CF91EA
:1001E0001F910F91FF90EF90089553985B98089599
:1001F0004B9BFECF4B99FECF109203011092020150
:1002000025E32A95F1F7009711F0539A5B9AE0E203
:10021000F3E03197F1F753985B98892B19F020E0C0
:1002200030E00AC0809102019091030120E030E0AB
:10023000892B11F021E030E0C9010895EF92FF927F
:100240000F931F93CF93DF93182F81E090E00E94CC
:10025000F800C0E0D0E091E0E92EF12C012F10E091
:10026000C7010C2E02C0880F991F0A94E2F7802361
:1002700091230E94F8002196C830D10589F7DF91BB
:10028000CF911F910F91FF90EF900895EF92FF9201
:100290001F93CF93DF9310E0C0E0D0E021E0E22E87
:1002A000F12C80E090E00E94F800892B41F0C7011A
:1002B0000C2E02C0880F991F0A94E2F7182B219682
:1002C000C830D10571F7812FDF91CF911F91FF9039
:1002D000EF900895CF93DF93F894509A259A2D9834
:1002E00053985B988EE08093690083E08DBB78948F
:1002F000C0E2DEE480E090E00E94F800892BD1F3B8
:100300000E9446018233B1F785E10E941E012D9AB9
:0E031000CE010197F1F72D98EDCFF894FFCFB5
:00000001FF
