:100000000C9434000C9446000C9446000C9446006A
:100010000C9446000C9446000C9446000C94460048
:100020000C9446000C9446000C9446000C94460038
:100030000C9446000C9446000C9446000C94460028
:100040000C9446000C9446000C9446000C94460018
:100050000C9446000C9446000C9446000C94460008
:100060000C9446000C94460011241FBECFEFD8E03C
:10007000DEBFCDBF11E0A0E0B1E001C01D92A43011
:10008000B107E1F70E9445010C94B4010C94000003
:1000900020E030E0682F70E040E951E0CB01022E13
:1000A00002C0959587950A94E2F780FF11C0289ABF
:1000B00088EC90E0FA013197F1F70197D9F7289889
:1000C00080EA9FE0FA013197F1F70197D9F710C064
:1000D000299A88EC90E0FA013197F1F70197D9F766
:1000E000299880EA9FE0FA013197F1F70197D9F753
:1000F0002F5F3F4F2830310589F608952D9A0895D6
:100100002D9808952D9A80E29EE40197F1F72D989D
:100110000895289A8AE08A95F1F7289808955298C8
:100120005A980895529A5A9A8AE68A95F1F75A98F7
:100130000895FF920F931F93CF93DF93C0E0D0E019
:10014000082F10E08AE6F82EC8010C2E02C0959503
:1001500087950A94E2F780FF03C00E94920003C0D3
:100160008F2D8A95F1F72196C830D10569F7DF9177
:10017000CF911F910F91FF9008954A9B0DC04A990E
:10018000FECF8AE18A95F1F70E94920080910201E8
:100190000E94990052985A98089553985B98089530
:1001A000CF93DF93EC014B9BFECF02C00E94BD00BA
:1001B0004B99FCCF8AE68A95F1F7209711F0539A74
:1001C0005B9A85ED8A95F1F7CD2B19F020E030E0B0
:1001D0000CC053985B9889B1282F30E093E0369596
:1001E00027959A95E1F72170307085ED8A95F1F7A2
:1001F00053985B98C901DF91CF910895EF92FF92D8
:100200000F931F93CF93DF93C0E0D0E021E0E22E65
:10021000F12C082F10E0C7010C2E02C0880F991F87
:100220000A94E2F7802391230E94D0002196C830DF
:10023000D10589F7DF91CF911F910F91FF90EF903A
:100240000895EF92FF921F93CF93DF9310E0C0E0E9
:10025000D0E031E0E32EF12C80E090E00E94D0006D
:10026000892B41F0C7010C2E02C0880F991F0A94F8
:10027000E2F7182B2196C830D10571F7812FDF9155
:10028000CF911F91FF90EF9008950F931F93CF93FD
:10029000DF93259A2D9853985B9852985A9880E24C
:1002A0009EE420E931E0F9013197F1F70197D9F7A0
:1002B0002D9A80E29EE40197F1F72D984B9BFECF9B
:1002C0004B99FECF00910301C0910001D091010133
:1002D000209761F481E090E00E94D0002D980E9468
:1002E00021018093020105E0C1E0D0E0C130D105D9
:1002F00039F4802F0E94FE0082E00E94FE0031C08F
:10030000C230D105E9F40E942101182F0E94210179
:1003100090910201191711F01F3F41F7813019F038
:10032000883019F42D9A05E008C0893011F42D9811
:10033000FACF863011F4C3E0D0E01917A9F2C8CF84
:10034000C330D10529F62D9A80E090E00E94D000BC
:10035000892B61F20E9421010E9421010E9421014A
:0C0360002D98C2E0D0E0C2CFF894FFCF8F
:00000001FF
