:100000000C9434000C9451000C9451000C94510049
:100010000C9451000C9451000C9451000C9451001C
:100020000C9451000C9451000C9451000C948400D9
:100030000C9451000C9451000C9451000C945100FC
:100040000C9451000C9451000C9451000C945100EC
:100050000C9451000C9451000C9451000C945100DC
:100060000C9451000C94510011241FBECFEFD8E026
:10007000DEBFCDBF12E0A0E0B1E0ECE8F1E102C0EC
:1000800005900D92AA30B107D9F712E0AAE0B2E0CC
:1000900001C01D92A631B107E1F70E945E020C94E7
:1000A000C4080C9400002D9A08952D980895259A5F
:1000B0002D9808952D9A84EF91E020E931E0F9011F
:1000C0003197F1F70197D9F72D9808958EE190E0D7
:1000D0009093890080938800109280008CE0809338
:1000E000810082E080936F000895109215021092B3
:1000F000140290930D0280930C0281E090E09093A3
:1001000013028093120208951F920F920FB60F925E
:1001100011242F933F934F935F938F939F938091DD
:100120000E0290910F02892B09F450C080911002A9
:1001300090911102892B39F456985E984E9B5AC0C3
:1001400081E090E00AC08091100290911102019725
:1001500049F4569A5E9A82E090E09093110280935F
:10016000100248C080911002909111020297C4F0D1
:1001700080911002909111020A9794F4209110023C
:10018000309111022250304085E190E002C09595F7
:1001900087952A95E2F780FD09C0569A5E9808C0B7
:1001A00080911002909111020A9741F4569A5E9A3A
:1001B00080911002909111020196CFCF56985E98CF
:1001C00089B1109211021092100214C08091100295
:1001D00090911102892B71F456985E984E9B0AC03B
:1001E00081E090E0909311028093100290930F02AF
:1001F00080930E028091000190910101892B09F0FA
:1002000078C020911202309113022130310589F417
:100210008091140290911502892B59F42098189915
:1002200008C03093150220931402309301012093EB
:1002300000018091120290911302892B09F0C6C02F
:100240008091140290911502892B31F4209818990D
:10025000BDC081E090E0B1C0809114029091150280
:10026000019799F42098189B0BC082E090E090933E
:1002700015028093140210920D0210920C02A6C077
:100280001092150210921402A1C080911402909154
:10029000150202971CF180911402909115020A97A1
:1002A000ECF440910C0250910D02209883B1209102
:1002B00014023091150290E08095909581709070B5
:1002C0002250304002C0880F991F2A95E2F7842BF4
:1002D000952B90930D0280930C026AC01092150228
:1002E0001092140281E090E090930B0280930A0236
:1002F0006DC08091120290911302892BB9F4809104
:10030000140290911502019789F42098189B0EC051
:1003100082E090E0909315028093140210920D02F7
:1003200010920C0210920101109200012091120211
:10033000309113022130310509F048C08091140238
:1003400090911502892B41F4209818993FC0309361
:100350001502209314023AC0809114029091150264
:10036000019729F4209A289A82E090E026C0809193
:1003700014029091150202972CF180911402909131
:1003800015020A97FCF420910C0230910D02809125
:10039000140290911502029702C0359527958A950F
:1003A000E2F720FF03C0209A289802C0209A289ADA
:1003B00080911402909115020196909315028093FA
:1003C000140204C0109213021092120280910001D4
:1003D0009091010121E030E0822793279093010161
:1003E0008093000180910E0290910F028227932743
:1003F00090930F0280930E029F918F915F914F9186
:100400003F912F910F900FBE0F901F901895AF92B4
:10041000BF92CF92DF92EF92FF920F931F932C9A8D
:10042000AA2797FDA095BA2FBC01CD010E94E60531
:100430005B016C0120E030E04AE755E40E945C0477
:100440007B018C0120E030E040E85FE30E94B605CC
:1004500088231CF461E070E024C0C801B70120E0EB
:100460003FEF4FE757E40E9456051816B4F4C60153
:10047000B50120E030E040E251E40E945C040E94BB
:10048000860280E991E005C0FC013197F1F76150E7
:10049000704061157105C1F707C0C801B7010E941E
:1004A0008602CB010197F1F72C981F910F91FF90D5
:1004B000EF90DF90CF90BF90AF900895F894259A79
:1004C0002D988EE190E0909389008093880010929F
:1004D00080008CE08093810082E080936F0084B183
:1004E000886184B9789480910A0290910B02892BDB
:1004F000D1F380910C0290910D02459711F40E9466
:100500005A0010920B0210920A02EDCFEF92FF9266
:100510000F931F937B018C0120E030E040E05FE40B
:100520000E94860588238CF0C801B70120E030E0E6
:1005300040E05FE40E94FE030E9444069B01AC0180
:10054000205030404040504806C0C801B7010E94CA
:1005500044069B01AC01B901CA011F910F91FF90A4
:10056000EF900895A0E0B0E0E8EBF2E00C948D0885
:10057000DC012B01FA019C91923008F439C1EB01A6
:100580008881823008F433C1943069F4843009F0F2
:100590002FC111969C9111978981981709F428C150
:1005A000A2E0B1E025C1843009F421C18230A9F470
:1005B000923009F01DC19A01AD0188E0EA0109906D
:1005C000AE01E90109929E018150C1F7E2018981E2
:1005D00011969C918923818308C1923009F407C147
:1005E00012962D903C901397EB018A819B81149673
:1005F000AD90BD90CD90DC901797EC80FD800E8182
:100600001F819101281B390BB90137FF04C06627F0
:100610007727621B730B603271050CF061C01216F4
:1006200013066CF537014801062E04C09694879492
:10063000779467940A94D2F721E030E040E050E0EC
:1006400004C0220F331F441F551F6A95D2F7215053
:100650003040404050402E213F214023512321155E
:1006600031054105510521F021E030E040E050E046
:1006700079018A01E628F728082919293CC0232B8B
:10068000D1F1260E371E35014601062E04C0969480
:100690008794779467940A94D2F721E030E040E0A1
:1006A00050E004C0220F331F441F551F6A95D2F734
:1006B00021503040404050402A213B214C215D21B7
:1006C000211531054105510521F021E030E040E0E0
:1006D00050E059016A01A628B728C828D9280BC0BC
:1006E000821593052CF01C01AA24BB24650103C0CC
:1006F000EE24FF24870111969C91D20111968C91D2
:10070000981709F445C0992339F0A80197012A19CF
:100710003B094C095D0906C0A60195012E193F0948
:10072000400B510B57FD08C0118233822282248373
:100730003583468357831DC081E0818333822282C3
:1007400088279927DC01821B930BA40BB50B8483AC
:100750009583A683B7830DC0220F331F441F551FF7
:1007600024833583468357838281938101979383C2
:1007700082832481358146815781DA01C90101973D
:10078000A109B1098F5F9F4FAF4FBF4328F30BC043
:10079000918333822282EA0CFB1C0C1D1D1DE48216
:1007A000F5820683178383E0808324813581468127
:1007B000578157FF1AC0C901AA2797FDA095BA2FE4
:1007C00081709070A070B0705695479537952795B9
:1007D000822B932BA42BB52B84839583A683B7837D
:1007E00082819381019693838283DF0101C0D201CC
:1007F000CD01CDB7DEB7E2E10C94A908A0E2B0E0EC
:10080000E4E0F4E00C94990869837A838B839C83F9
:100810002D833E834F835887E9E0EE2EF12CEC0EBA
:10082000FD1ECE010196B7010E94BC078E010F5E2E
:100830001F4FCE010596B8010E94BC078A8991E03E
:1008400089278A8BC701B801AE01475E5F4F0E94BE
:10085000B2020E94E706A096E6E00C94B508A0E27A
:10086000B0E0E5E3F4E00C94990869837A838B8324
:100870009C832D833E834F835887F9E0EF2EF12C24
:10088000EC0EFD1ECE010196B7010E94BC078E0141
:100890000F5E1F4FCE010596B8010E94BC07C7012D
:1008A000B801AE01475E5F4F0E94B2020E94E706A8
:1008B000A096E6E00C94B508A0E2B0E0E2E6F4E031
:1008C0000C948D0869837A838B839C832D833E836C
:1008D0004F835887CE010196BE01675F7F4F0E940C
:1008E000BC07CE010596BE016F5E7F4F0E94BC071C
:1008F0009985923088F089898230C8F0943019F453
:10090000823051F404C0843029F4923081F482E0C2
:1009100091E0C6C0923049F420E09A858A89981304
:1009200021E02A87CE010996BBC0823049F420E03D
:100930009A858A89981321E02A8BCE014196B0C00E
:100940002D843E844F8458886D887E888F88988C4B
:10095000EE24FF248701AA24BB24650140E050E077
:1009600060E070E0E0E0F0E0C10181709070892B00
:10097000E9F0E60CF71C081D191D9A01AB012A0DC0
:100980003B1D4C1D5D1D80E090E0A0E0B0E0E61452
:10099000F7040805190520F481E090E0A0E0B0E03C
:1009A000BA01A901480F591F6A1F7B1FAA0CBB1C63
:1009B000CC1CDD1C97FE08C081E090E0A0E0B0E018
:1009C000A82AB92ACA2ADB2A3196E032F10549F071
:1009D000660C771C881C991C56944794379427946E
:1009E000C3CFFA85EA892B893C898B859C85280FA2
:1009F000391F2E5F3F4F17C0CA0181709070892B3D
:100A000061F016950795F794E79480E090E0A0E0F8
:100A1000B0E8E82AF92A0A2B1B2B7695679557959B
:100A200047952F5F3F4F77FDE7CF0CC0440F551F11
:100A3000661F771F17FD4160EE0CFF1C001F111F82
:100A400021503040403090E0590790E0690790E431
:100A5000790760F32B8F3C8FDB01CA018F77907091
:100A6000A070B07080349105A105B10561F447FD17
:100A70000AC0E114F1040105110529F0405C5F4F43
:100A80006F4F7F4F40781A8EFE1711F081E08A8FEA
:100A90004D8F5E8F6F8F78A383E0898FCE0149964B
:100AA0000E94E706A096E2E10C94A908A8E1B0E054
:100AB000ECE5F5E00C94990869837A838B839C8339
:100AC0002D833E834F83588789E0E82EF12CEC0E6E
:100AD000FD1ECE010196B7010E94BC078E010F5E7C
:100AE0001F4FCE010596B8010E94BC078985823050
:100AF00040F08989823028F0C701B8010E9434088B
:100B000001C08FEF6896E6E00C94B508A8E1B0E06C
:100B1000ECE8F5E00C94990869837A838B839C83D5
:100B20002D833E834F83588789E0E82EF12CEC0E0D
:100B3000FD1ECE010196B7010E94BC078E010F5E1B
:100B40001F4FCE010596B8010E94BC0789858230EF
:100B500040F08989823028F0C701B8010E9434082A
:100B600001C08FEF6896E6E00C94B508A8E1B0E00C
:100B7000ECEBF5E00C94990869837A838B839C8372
:100B80002D833E834F83588789E0E82EF12CEC0EAD
:100B9000FD1ECE010196B7010E94BC078E010F5EBB
:100BA0001F4FCE010596B8010E94BC07898582308F
:100BB00040F08989823028F0C701B8010E943408CA
:100BC00001C081E06896E6E00C94B508A8E0B0E0CA
:100BD000ECEEF5E00C9496089B01AC0183E0898370
:100BE000DA01C9018827B7FD83959927AA27BB2772
:100BF000B82E211531054105510519F482E089838C
:100C00003AC08823A9F0203080E0380780E0480708
:100C100080E8580729F460E070E080E09FEC30C085
:100C2000EE24FF248701E21AF30A040B150B02C01D
:100C300079018A018EE1C82ED12CDC82CB82ED8233
:100C4000FE820F831887C801B7010E94980601979A
:100C50001816190684F4082E04C0EE0CFF1C001FA1
:100C6000111F0A94D2F7ED82FE820F831887C81AEB
:100C7000D90ADC82CB82BA82CE0101960E94E706B5
:100C80002896E9E00C94B208ACE0B0E0EAE4F6E0C3
:100C90000C949D0869837A838B839C83CE01019693
:100CA000BE016B5F7F4F0E94BC078D81823061F176
:100CB000823050F1843021F48E81882351F12EC08E
:100CC0002F81388537FD20C06E812F3131051CF012
:100CD0006623F9F023C08EE190E0821B930B2985F7
:100CE0003A854B855C8504C0569547953795279581
:100CF0008A95D2F76623B1F05095409530952195AD
:100D00003F4F4F4F5F4F0EC020E030E040E050E0DB
:100D100009C02FEF3FEF4FEF5FE704C020E030E066
:100D200040E050E8B901CA012C96E2E00C94B90801
:100D3000EF92FF920F931F937B018C0180E0E816E6
:100D400080E0F80681E0080780E0180788F48FEF5C
:100D5000E816F1040105110531F028F088E090E073
:100D6000A0E0B0E017C080E090E0A0E0B0E012C0EA
:100D700080E0E81680E0F80680E0080781E01807C8
:100D800028F088E190E0A0E0B0E004C080E190E0CD
:100D9000A0E0B0E020E230E040E050E0281B390B5A
:100DA0004A0B5B0B04C016950795F794E7948A9558
:100DB000D2F7F701E65FFE4F8081281B3109410918
:100DC0005109C9011F910F91FF90EF900895DF9293
:100DD000EF92FF920F931F93FC01E480F580068150
:100DE0001781D1808081823048F480E090E0A0E1DA
:100DF000B0E0E82AF92A0A2B1B2BA5C0843009F49D
:100E00009FC0823021F4EE24FF24870105C0E11445
:100E1000F1040105110519F4E0E0F0E096C06281EB
:100E200073819FEF623879070CF05BC022E83FEFD7
:100E3000261B370B2A3131052CF020E030E040E052
:100E400050E02AC0B801A701022E04C0769567952C
:100E5000579547950A94D2F781E090E0A0E0B0E082
:100E600004C0880F991FAA1FBB1F2A95D2F70197AC
:100E7000A109B1098E219F21A023B1230097A105CB
:100E8000B10521F081E090E0A0E0B0E09A01AB0173
:100E9000282B392B4A2B5B2BDA01C9018F779070F5
:100EA000A070B07080349105A105B10539F427FF19
:100EB00009C0205C3F4F4F4F5F4F04C0215C3F4F44
:100EC0004F4F5F4FE0E0F0E02030A0E03A07A0E0B5
:100ED0004A07A0E45A0710F0E1E0F0E079018A0146
:100EE00027C06038710564F5FB01E158FF4FD80158
:100EF000C7018F779070A070B07080349105A10504
:100F0000B10539F4E7FE0DC080E490E0A0E0B0E068
:100F100004C08FE390E0A0E0B0E0E80EF91E0A1FE5
:100F20001B1F17FF05C016950795F794E794319698
:100F300087E016950795F794E7948A95D1F705C051
:100F4000EE24FF248701EFEFF0E06E2F6795662710
:100F50006795902F9F77D794DD24D7948E2F869511
:100F6000492F462B582F5D29B701CA011F910F91B8
:100F7000FF90EF90DF900895FC01DB0140815181EB
:100F80002281622F6F7770E0221F2227221F938118
:100F9000892F880F822B282F30E0991F9927991FBE
:100FA00011969C93119721153105A9F5411551050D
:100FB0006105710511F482E037C082E89FEF139656
:100FC0009C938E9312979A01AB0167E0220F331F17
:100FD000441F551F6A95D1F783E08C930DC0220FF3
:100FE000331F441F551F12968D919C9113970197A3
:100FF00013969C938E931297203080E0380780E000
:10100000480780E4580758F314962D933D934D9369
:101010005C93179708952F3F310579F441155105D9
:101020006105710519F484E08C93089564FF03C091
:1010300081E08C9312C01C9210C02F573040139641
:101040003C932E93129783E08C9387E0440F551FB7
:10105000661F771F8A95D1F7706414964D935D9340
:101060006D937C93179708951F93DC01FB019C916E
:10107000923008F447C08081823008F443C0943035
:1010800051F411961C91843099F58181682F70E09C
:10109000611B71093FC0843021F0923031F48230FD
:1010A000B9F18181882389F12DC011961C91119786
:1010B0008230F1F081811817D9F412962D913C916C
:1010C0001397828193818217930794F02817390729
:1010D000BCF014968D919D910D90BC91A02D248112
:1010E000358146815781281739074A075B0718F46D
:1010F000112341F00AC082179307A407B50740F4F3
:10110000112319F061E070E005C06FEF7FEF02C0BE
:1011100060E070E0CB011F9108952F923F924F92B3
:101120005F926F927F928F929F92AF92BF92CF9277
:10113000DF92EF92FF920F931F93CF93DF93CDB780
:10114000DEB7CA1BDB0B0FB6F894DEBF0FBECDBFF8
:1011500009942A88398848885F846E847D848C84C9
:101160009B84AA84B984C884DF80EE80FD800C81D2
:101170001B81AA81B981CE0FD11D0FB6F894DEBFB5
:0C1180000FBECDBFED010895F894FFCF25
:10118C000100000000000000000000010202030347
:10119C0003030404040404040404050505050505FF
:1011AC0005050505050505050505060606060606DD
:1011BC0006060606060606060606060606060606C3
:1011CC0006060606060606060606070707070707AD
:1011DC000707070707070707070707070707070793
:1011EC000707070707070707070707070707070783
:1011FC000707070707070707070707070707070773
:10120C00070707070707070707070808080808085C
:10121C000808080808080808080808080808080842
:10122C000808080808080808080808080808080832
:10123C000808080808080808080808080808080822
:10124C000808080808080808080808080808080812
:10125C000808080808080808080808080808080802
:10126C0008080808080808080808080808080808F2
:10127C0008080808080808080808080808080808E2
:0A128C000808080808080808080808
:00000001FF
