:100000000C9434000C9451000C9451000C94510049
:100010000C9451000C9451000C9451000C9451001C
:100020000C9451000C9451000C9451000C948200DB
:100030000C9451000C9451000C9451000C945100FC
:100040000C9451000C9451000C948A030C94B2034C
:100050000C9451000C9451000C9451000C945100DC
:100060000C9451000C94510011241FBECFEFD8E026
:10007000DEBFCDBF11E0A0E0B1E0E0E2FAE002C0F7
:1000800005900D92AA30B107D9F713E0AAE0B1E0CC
:1000900001C01D92A032B107E1F70E9482020C94C8
:1000A0000E050C9400002D9A08952D980895259A18
:1000B0002D9808952D9A84EF91E020E931E0F9011F
:1000C0003197F1F70197D9F72D9808958EE190E0D7
:1000D0009093890080938800109280008CE0809338
:1000E000810082E080936F000895809112019091C9
:1000F0001301892B31F481E090E0909311018093FA
:10010000100108951F920F920FB60F921124EF92D3
:10011000FF920F931F932F933F934F935F938F9370
:100120009F93AF93BF9380910C0190910D01892B08
:1001300009F450C080910E0190910F01892B39F480
:1001400020982898189B5AC081E090E00AC08091BE
:100150000E0190910F01019749F4209A289A82E0AC
:1001600090E090930F0180930E0148C080910E01A2
:1001700090910F010297C4F080910E0190910F01B0
:100180000A9794F420910E0130910F0122503040D3
:100190008AEA90E002C0959587952A95E2F780FD5E
:1001A00009C0209A289808C080910E0190910F01F3
:1001B0000A9741F4209A289A80910E0190910F019C
:1001C0000196CFCF2098289883B110920F011092FA
:1001D0000E0114C080910E0190910F01892B71F4D2
:1001E00020982898189B0AC081E090E090930F0116
:1001F00080930E0190930D0180930C018091070173
:1002000090910801892B09F4C1C08091100190914F
:100210001101892B09F453C08091120190911301AF
:10022000892B09F452C0809112019091130101971A
:1002300049F4219A299A82E090E0909313018093E7
:100240001201C0C0809112019091130102972CF10C
:1002500080911201909113018297F8F480911C0310
:1002600090911D03A0911E03B0911F0320911201D4
:10027000309113012250304004C0B695A795979550
:1002800087952A95D2F781709070892B19F0219A61
:10029000299865C0219A299A62C080911201909193
:1002A0001301829719F4219883B159C0109211015A
:1002B00010921001109213011092120183C08091CC
:1002C000120190911301892B21F4219819997AC078
:1002D0006CC08091120190911301019721F4219833
:1002E000199B70C096C080911201909113010297E2
:1002F000E4F180911201909113018297B0F5E090A2
:100300001C03F0901D0300911E0310911F03219800
:1003100083B1409112015091130190E09695879519
:1003200021E030E082279327A0E0B0E08170907058
:10033000A070B0704250504004C0880F991FAA1F8F
:10034000BB1F4A95D2F78E299F29A02BB12B8093F2
:100350001C0390931D03A0931E03B0931F03809171
:10036000120190911301019668CF80911201909132
:1003700013018297A1F3109213011092120181E0F0
:1003800090E090930B0180930A011CC080911001B2
:1003900090911101892BB1F4809112019091130178
:1003A000892B31F42198199903C081E090E045CF61
:1003B00020911201309113012130310519F4219857
:1003C000199936C0809107019091080121E030E031
:1003D00082279327909308018093070180910C0155
:1003E00090910D018227932790930D0180930C012A
:1003F000BF91AF919F918F915F914F913F912F91BD
:100400001F910F91FF90EF900F900FBE0F901F90D4
:10041000189582E090E0909313018093120110925E
:100420001C0310921D0310921E0310921F03CACFCB
:1004300082E090E0909313018093120110921C03CC
:1004400010921D0310921E0310921F033093080197
:1004500020930701B7CFFC019B01207F307044E05F
:10046000359527954A95E1F72A30310518F4822F02
:10047000805D08C0C9010A97069710F080E302C0AA
:10048000822F895A80836F7070706A30710510F402
:10049000605D07C0CB010A97069710F060E301C0CA
:1004A000695A61830895CF92DF92EF92FF920F9382
:1004B0001F936C017A018B01212F33274427552785
:1004C000B9010E942B02980144275527C6010296C4
:1004D000B9010E942B025527412F302F2F2DC60125
:1004E0000496B9010E942B02C6010696B7010E942C
:1004F0002B02F60110861F910F91FF90EF90DF9075
:10050000CF900895CF92DF92EF92FF920F931F93B7
:10051000DF93CF93CDB7DEB72A970FB6F894DEBF3F
:100520000FBECDBFF89480ED97E020E931E0F901EE
:100530003197F1F70197D9F7259A2D988EE190E040
:100540009093890080938800109280008CE08093C3
:10055000810082E080936F0080E091EE0E940B04A6
:1005600080E091E00E944D0478940E945A008E0130
:100570000F5F1F4FA0E2CA2EF5E0DF2EE1E0EE2E66
:10058000F12C80910A0190910B01892BD1F34091BC
:100590001C0350911D0360911E0370911F03C8013D
:1005A0000E945302C9861A86C8010E944D042091F8
:1005B0001F0380911C0340911D0350911E0330E0E6
:1005C00090E0840F911D850F911D907028173907B9
:1005D000F1F580911C038A3A21F080911C038F3F32
:1005E000B1F480911D03813011F42D9A10C08091D7
:1005F0001D03823011F42D980AC080911D038330B1
:1006000021F080911D03843011F480911E038091AC
:100610001C038A3AE1F4D0921D0310921E0320912C
:100620001C0380911D0390911E03820F890F8093FC
:100630001F0310920B0110920A01809112019091F8
:100640001301892B21F4F0921101E0921001109214
:100650000B0110920A0195CFCF93DF93482FEB0146
:10066000CE5FDE4F88819981C250D140019660E013
:1006700071E00E94C5049C01FE01E050FF4F8081A3
:10068000918182179307D9F3DE01AE5FBE4FED91E2
:10069000FC911197EC0FFD1F408311963C932E9314
:1006A000DF91CF910895CF93DF93DC01EC01C0502F
:1006B000DF4F28813981AE5FBE4F8D919C9111979C
:1006C000A250B1402817390711F4E0E00EC0E881CC
:1006D000F981EA0FFB1FE08188819981019660E032
:1006E00071E00E94C504998388838E2FDF91CF919A
:1006F0000895FC01EE5FFE4F808191813297208149
:10070000318180509F4F821B930B60E071E00E940B
:10071000C50408951F920F920FB60F9211242F93C4
:100720003F934F935F936F937F938F939F93AF9379
:10073000BF93EF93FF938091C60068E172E00E943F
:100740002C03FF91EF91BF91AF919F918F917F917A
:100750006F915F914F913F912F910F900FBE0F902E
:100760001F9018951F920F920FB60F9211242F937E
:100770003F934F935F936F937F938F939F93AF9329
:10078000BF93EF93FF9384E191E00E947903892B5B
:1007900039F084E191E00E9453038093C60005C0C4
:1007A0008091C1008F7D8093C100FF91EF91BF9137
:1007B000AF919F918F917F916F915F914F913F91F9
:1007C0002F910F900FBE0F901F901895209114023B
:1007D000309115028091160290911702281739075F
:1007E000A9F710921502109214021092170210929B
:1007F0001602109219031092180310921B03109204
:100800001A030895109219031092180310921B03F3
:1008100010921A030895EF92FF920F931F937C0199
:100820000E94E60300E010E083E0EE0CFF1C001FD6
:10083000111F8A95D1F760E074E284EF90E0A8017F
:1008400097010E94D804215030403093C500209376
:10085000C400E0ECF0E0808182608083E1ECF0E0B5
:10086000808188698083E2ECF0E08081866080830B
:1008700078941F910F91FF90EF9008950E94E603E6
:100880001092C100089564E171E00E942C03E1EC34
:10089000F0E08081806280830895CF93DF93EC0144
:1008A00005C0219664E171E00E942C0388818823B1
:1008B000C1F78091C10080628093C100DF91CF9128
:1008C00008950F931F93CF93DF938C01EB0107C023
:1008D000F80181918F0164E171E00E942C0321975E
:1008E000FFEFCF3FDF07A1F78091C10080628093C7
:1008F000C100DF91CF911F910F91089588E192E09F
:100900000E947903089588E192E00E9453030895BC
:10091000EF92FF920F931F93CF93DF937C018B0194
:10092000C0E0D0E007C00E948304F701EC0FFD1F78
:10093000808321960E947E04892B19F0C017D1076D
:1009400094F3CE01DF91CF911F910F91FF90EF9023
:1009500008950E947E04892BE1F30E948304089588
:1009600020911A0330911B03809118039091190371
:100970002817390711F480E00895E0911803F091E9
:100980001903E85EFD4F8081089597FB092E072625
:100990000AD077FD04D02ED006D000201AF470952E
:1009A00061957F4F0895F6F7909581959F4F089533
:1009B000A1E21A2EAA1BBB1BFD010DC0AA1FBB1F63
:1009C000EE1FFF1FA217B307E407F50720F0A21BD5
:1009D000B30BE40BF50B661F771F881F991F1A9442
:1009E00069F760957095809590959B01AC01BD016C
:1009F000CF010895AA1BBB1B51E107C0AA1FBB1F53
:100A0000A617B70710F0A61BB70B881F991F5A959A
:100A1000A9F780959095BC01CD010895F894FFCF7A
:0A0A200068656C6C6F200001000097
:00000001FF
