:100000000C9434000C9451000C9451000C94510049
:100010000C9451000C9451000C9451000C9451001C
:100020000C9451000C9451000C9451000C947500E8
:100030000C9451000C9451000C9451000C945100FC
:100040000C9451000C9451000C9451000C945100EC
:100050000C9451000C9451000C9451000C945100DC
:100060000C9451000C94510011241FBECFEFD8E026
:10007000DEBFCDBF11E0A0E0B1E0EAEBF3E002C0EB
:1000800005900D92A230B107D9F711E0A2E0B1E0DE
:1000900001C01D92AE30B107E1F70E94AB010C9494
:1000A000DB010C9400002D9A08952D980895259A4F
:1000B0002D9808952D9A84EF91E020E931E0F9011F
:1000C0003197F1F70197D9F72D9808958EE190E0D7
:1000D0009093890080938800109280008CE0809338
:1000E000810082E080936F0008951F920F920FB6F7
:1000F0000F9211242F933F934F935F936F937F93AE
:100100008F939F93AF93BF938091040190910501CA
:10011000892B09F450C08091060190910701892B29
:1001200039F456985E984E9B5AC081E090E00AC020
:100130008091060190910701019749F4569A5E9AC1
:1001400082E090E0909307018093060148C080917F
:100150000601909107010297C4F0809106019091E9
:1001600007010A9794F4209106013091070122506B
:10017000304085E190E002C0959587952A95E2F799
:1001800080FD09C0569A5E9808C080910601909142
:1001900007010A9741F4569A5E9A80910601909160
:1001A00007010196CFCF56985E9889B1109207014A
:1001B0001092060114C08091060190910701892BCD
:1001C00071F456985E984E9B0AC081E090E090933F
:1001D00007018093060190930501809304018091AB
:1001E000000190910101892B09F474C080910801EC
:1001F00090910901892B31F42098189987C081E0EA
:1002000090E058C080910801909109010197B9F4DC
:100210002098189B0FC082E090E090930901809392
:10022000080110920A0110920B0110920C01109219
:100230000D016CC0109209011092080167C08091F5
:100240000801909109010297D4F1809108019091E1
:1002500009018297A0F540910A0150910B0160912C
:100260000C0170910D01209883B12091080130910B
:10027000090190E0809590958170907022503040F7
:1002800002C0880F991F2A95E2F7AA2797FDA0952B
:10029000BA2F842B952BA62BB72B80930A01909312
:1002A0000B01A0930C01B0930D0180910801909176
:1002B00009010196909309018093080127C01092CB
:1002C00009011092080181E090E09093030180936E
:1002D00002011CC020910801309109012130310533
:1002E000A9F42098189B12C082E090E09093090135
:1002F0008093080110920A0110920B0110920C01D8
:1003000010920D01309301012093000180910001B2
:100310009091010121E030E0822793279093010121
:100320008093000180910401909105018227932719
:100330009093050180930401BF91AF919F918F919C
:100340007F916F915F914F913F912F910F900FBED1
:100350000F901F901895F894259A2D988EE190E0B3
:100360009093890080938800109280008CE08093A5
:10037000810082E080936F007894809102019091D7
:100380000301892BD1F380910A01853121F08091FD
:100390000A018F3F59F480910B01813011F42D9A9D
:1003A00005C080910B01823009F42D981092030151
:0A03B00010920201E2CFF894FFCF93
:0203BA00010040
:00000001FF
