:1000000010C01FC01EC01DC01CC01BC01AC019C01C
:1000100018C017C016C015C014C013C012C011C03C
:1000200010C011241FBECFE5D2E0DEBFCDBF10E06F
:10003000A0E6B0E001C01D92A436B107E1F756D1A9
:10004000D1C1DECF20E030E0482F50E0A0E4BCE991
:1000500068EC70E0CA01022E02C0959587950A945B
:10006000E2F780FF0DC0C09ACD010197F1F7C0986B
:1000700080EA9FE0FB013197F1F70197D9F70CC0B7
:10008000C19ACD010197F1F7C19880EA9FE0FB0189
:100090003197F1F70197D9F72F5F3F4F283031059E
:1000A000C9F60895DB9A0895DB980895DB9A80E1FC
:1000B00097E20197F1F7DB980895DB9A85E08A953E
:1000C000F1F7DB980895892B11F0C09A0895C09834
:1000D0000895892B11F0D89A0895D8980895892BFE
:1000E00011F0DE9A0895DE980895892B11F0DD9ABB
:1000F0000895DD980895DE9891E89FBD9CE09EBD2F
:100100001BBC8ABD0895DD9891E29FBD9CE09EBD19
:1001100019BC88BD08951FBC1EBC08951FBC1EBC21
:10012000C09AD89ADE9ADD9A0895B89A8AB3816601
:100130008ABBF4DF0895982FC098D89ADE988F3F35
:1001400021F41FBC1EBCDD9A0895882311F4E6DF5C
:100150000895DD9881E28FBD8CE08EBD19BC98BDFD
:100160000895982FC09AD898DD988F3F21F41FBC2E
:100170001EBCDE9A0895882311F4D0DF0895DE981E
:1001800081E88FBD8CE08EBD1BBC9ABD0895BA98E6
:10019000C2980895BA9AC29A85E38A95F1F7C298EF
:1001A0000895FF920F931F93CF93DF93C0E0D0E0A9
:1001B000082F10E085E3F82EC8010C2E02C095959B
:1001C00087950A94E2F780FF02C0E4DF03C08F2D19
:1001D0008A95F1F72196C830D10571F7DF91CF915B
:1001E0001F910F91FF900895B29B0BC0B299FECF63
:1001F0008DE08A95F1F7CEDF80916200D2DFBA9868
:10020000C2980895D798DF980895CF93DF93EC01B3
:10021000CF9BFECF01C0E8DFCF99FDCF85E38A9564
:10022000F1F7209711F0D79ADF9A8AE68A95F1F7CD
:10023000CD2B19F020E030E00BC0D798DF9889B3C0
:10024000282F332727FD30952227330F221F3327EE
:100250008AE68A95F1F7D798DF98C901DF91CF91A7
:100260000895EF92FF920F931F93CF93DF93C0E017
:10027000D0E021E0E22EF12C082F10E0C7010C2E77
:1002800002C0880F991F0A94E2F780239123BDDFF3
:100290002196C830D10591F7DF91CF911F910F9131
:1002A000FF90EF900895EF92FF921F93CF93DF930B
:1002B00010E0C0E0D0E031E0E32EF12C80E090E0EF
:1002C000A4DF892B41F0C7010C2E02C0880F991FB3
:1002D0000A94E2F7182B2196C830D10579F7812FBF
:1002E000DF91CF911F91FF90EF900895FF920F93B0
:1002F0001F93CF93DF93D39ADB98D798DF9815DFBE
:10030000BA98C29880E29EE428EC30E0F901319777
:10031000F1F70197D9F7DB9A80E197E20197F1F7BE
:10032000DB98CF9BFECFCF99FECF10916300C09199
:100330006000D0916100209779F481E090E065DF62
:10034000B2DF8093620081E48CDF83E58ADF84E49E
:1003500088DF1FEFC1E0D0E0C130D10529F4812F43
:1003600080DF82E07EDF3BC0C230D10549F59BDFF4
:10037000082F99DFF09062000F1511F00F3F61F721
:10038000813019F0883019F4DB9A15E016C08930F5
:1003900011F4DB98FACF8A3011F4C0DEF6CF8B303F
:1003A00019F488E2C8DEF1CF8C3019F488E2D9DE86
:1003B000ECCF863011F4C3E0D0E00F1559F2BBCF7B
:1003C000C330D10509F0B7CF80E090E01EDF892B64
:1003D00019F269DF68DF67DF66DF65DF64DFC2E0CF
:0803E000D0E0BACFF894FFCF82
:00000001FF
