:1000000010C01FC01EC01DC01CC01BC01AC019C01C
:1000100018C017C016C015C014C013C012C011C03C
:1000200010C011241FBECFE5D2E0DEBFCDBF10E06F
:10003000A0E6B0E001C01D92A436B107E1F756D1A9
:10004000DDC1DECF20E030E0482F50E0A0E4BCE985
:1000500068EC70E0CA01022E02C0959587950A945B
:10006000E2F780FF0DC0C09ACD010197F1F7C0986B
:1000700080EA9FE0FB013197F1F70197D9F70CC0B7
:10008000C19ACD010197F1F7C19880EA9FE0FB0189
:100090003197F1F70197D9F72F5F3F4F283031059E
:1000A000C9F60895DB9A0895DB980895DB9A80E1FC
:1000B00097E20197F1F7DB980895DB9A85E08A953E
:1000C000F1F7DB980895892B11F0C09A0895C09834
:1000D0000895892B11F0D89A0895D8980895892BFE
:1000E00011F0DE9A0895DE980895892B11F0DD9ABB
:1000F0000895DD980895DE9891E89FBD9CE09EBD2F
:100100001BBC8ABD0895DD9891E29FBD9CE09EBD19
:1001100019BC88BD08951FBC1EBC08951FBC1EBC21
:10012000C09AD89ADE9ADD9A0895B89A8AB3816601
:100130008ABBF4DF0895982FC098D89ADE988F3F35
:1001400021F41FBC1EBCDD9A0895882311F4E6DF5C
:100150000895DD9881E28FBD8CE08EBD19BC98BDFD
:100160000895982FC09AD898DD988F3F21F41FBC2E
:100170001EBCDE9A0895882311F4D0DF0895DE981E
:1001800081E88FBD8CE08EBD1BBC9ABD0895BA98E6
:10019000C2980895BA9AC29A85E38A95F1F7C298EF
:1001A0000895FF920F931F93CF93DF93C0E0D0E0A9
:1001B000082F10E085E3F82EC8010C2E02C095959B
:1001C00087950A94E2F780FF02C0E4DF03C08F2D19
:1001D0008A95F1F72196C830D10571F7DF91CF915B
:1001E0001F910F91FF900895B29B0BC0B299FECF63
:1001F0008DE08A95F1F7CEDF80916000D2DFBA986A
:10020000C2980895D798DF980895CF93DF93EC01B3
:10021000CF9BFECF01C0E8DFCF99FDCF85E38A9564
:10022000F1F7209711F0D79ADF9A8AE68A95F1F7CD
:10023000CD2B19F020E030E00BC0D798DF9889B3C0
:10024000282F332727FD30952227330F221F3327EE
:100250008AE68A95F1F7D798DF98C901DF91CF91A7
:100260000895EF92FF920F931F93CF93DF93C0E017
:10027000D0E021E0E22EF12C082F10E0C7010C2E77
:1002800002C0880F991F0A94E2F780239123BDDFF3
:100290002196C830D10591F7DF91CF911F910F9131
:1002A000FF90EF900895EF92FF921F93CF93DF930B
:1002B000C0E0D0E010E031E0E32EF12C80E090E0EF
:1002C000A4DF892B41F0C7010C2E02C0880F991FB3
:1002D0000A94E2F7182B2196C830D10579F7812FBF
:1002E000DF91CF911F91FF90EF900895FF920F93B0
:1002F0001F93CF93DF93D39ADB98D798DF9815DFBE
:10030000BA98C29880E197E228EC30E0F901319781
:10031000F1F70197D9F787E28093600082E090E0DF
:100320009093620080936100DB9A80E197E20197ED
:10033000F1F7DB9810916300C2E0D0E0209749F418
:1003400081E090E062DFAFDF809360001FEFC1E0EB
:10035000D0E0C130D10529F4812F83DF82E081DF35
:100360004AC0C230D105D1F59EDF082F9CDFF09046
:1003700060000F1511F00F3F61F7813019F08830E0
:1003800019F4DB9A15E026C0893011F4DB98FACF16
:100390008A3011F4C3DEF6CF8B3019F488E2CBDE5D
:1003A000F1CF8C3019F488E2DCDEECCF863019F422
:1003B000C3E0D0E00FC08D3011F411E40BC08E30DB
:1003C00011F413E507C08F3011F414E403C0803139
:1003D00009F41FEF0F1509F4BACFB0CFC330D10520
:1003E00009F0ACCF80E090E010DF892B09F4B1CFA9
:1003F0005ADF59DF58DFC2E0D0E0ABCFF894FFCF2F
:00000001FF
