:1000000010C01FC01EC01DC01CC01BC01AC019C01C
:1000100018C017C016C015C014C013C012C011C03C
:1000200010C011241FBECFE5D2E0DEBFCDBF10E06F
:10003000A0E6B0E001C01D92A436B107E1F754D1AB
:10004000DBC1DECF20E030E0482F50E0A0E4BCE987
:1000500068EC70E0CA01022E02C0959587950A945B
:10006000E2F780FF0DC0C09ACD010197F1F7C0986B
:1000700080EA9FE0FB013197F1F70197D9F70CC0B7
:10008000C19ACD010197F1F7C19880EA9FE0FB0189
:100090003197F1F70197D9F72F5F3F4F283031059E
:1000A000C9F60895D89A0895D8980895D89A80E105
:1000B00097E20197F1F7D8980895D89A85E08A9544
:1000C000F1F7D8980895892B11F0DF9A0895DF98F9
:1000D0000895892B11F0DC9A0895DC980895892BF6
:1000E00011F0DE9A0895DE980895892B11F0DD9ABB
:1000F0000895DD980895DE9891E89FBD9CE09EBD2F
:100100001BBC8ABD0895DD9891E29FBD9CE09EBD19
:1001100019BC88BD08951FBC1EBC08951FBC1EBC21
:10012000DF9ADC9ADE9ADD9A0895B89A8AB38166DE
:100130008ABBF4DF0895982FDF98DC9ADE988F3F12
:1001400021F41FBC1EBCDD9A0895882311F4E6DF5C
:100150000895DD9881E28FBD8CE08EBD19BC98BDFD
:100160000895982FDF9ADC98DD988F3F21F41FBC0B
:100170001EBCDE9A0895882311F4D0DF0895DE981E
:1001800081E88FBD8CE08EBD1BBC9ABD0895B898E8
:10019000C0980895B89AC09A85E38A95F1F7C098F7
:1001A0000895FF920F931F93CF93DF93C0E0D0E0A9
:1001B000082F10E085E3F82EC8010C2E02C095959B
:1001C00087950A94E2F780FF02C0E4DF03C08F2D19
:1001D0008A95F1F72196C830D10571F7DF91CF915B
:1001E0001F910F91FF900895B09B0BC0B099FECF67
:1001F0008DE08A95F1F7CEDF80916000D2DFB8986C
:10020000C0980895B998C1980895CF93DF93EC01F1
:10021000B19BFECF01C0E8DFB199FDCF85E38A95A0
:10022000F1F7209711F0B99AC19A8AE68A95F1F709
:10023000CD2B19F020E030E009C0B998C19886B301
:10024000282F30E036952795217030708AE68A9500
:10025000F1F7B998C198C901DF91CF910895EF9254
:10026000FF920F931F93CF93DF93C0E0D0E021E084
:10027000E22EF12C082F10E0C7010C2E02C0880FCF
:10028000991F0A94E2F780239123BFDF2196C8309B
:10029000D10591F7DF91CF911F910F91FF90EF90D2
:1002A0000895EF92FF921F93CF93DF9310E0C0E089
:1002B000D0E031E0E32EF12C80E090E0A6DF892B46
:1002C00041F0C7010C2E02C0880F991F0A94E2F773
:1002D000182B2196C830D10579F7812FDF91CF9166
:1002E0001F91FF90EF900895FF920F931F93CF936C
:1002F000DF93D09AD898B998C19817DFB898C0986A
:1003000080E197E228EC30E0F9013197F1F70197AD
:10031000D9F785EA8093600082E090E090936200D4
:1003200080936100D89A80E197E20197F1F7D8981D
:1003300010916300C2E0D0E0209749F481E090E0A2
:1003400064DFAFDF809360001FEFC1E0D0E0C13019
:10035000D10529F4812F83DF82E081DF4AC0C230DA
:10036000D105D1F59EDF082F9CDFF09060000F15BE
:1003700011F00F3F61F7813019F0883019F4D89AE5
:1003800015E026C0893011F4D898FACF8A3011F4DC
:10039000C5DEF6CF8B3019F488E2CDDEF1CF8C309C
:1003A00019F488E2DEDEECCF863019F4C3E0D0E049
:1003B0000FC08D3011F411E40BC08E3011F413E531
:1003C00007C08F3011F414E403C0803109F41FEF2B
:1003D0000F1509F4BACFB0CFC330D10509F0ACCFB7
:1003E00080E090E012DF892B09F4B1CF5ADF59DFAA
:0C03F00058DFC2E0D0E0ABCFF894FFCFA4
:00000001FF
