:100000000C9434000C9451000C9451000C94510049
:100010000C9451000C9451000C9451000C9451001C
:100020000C9451000C9451000C9451000C94F2006B
:100030000C9451000C9451000C9451000C945100FC
:100040000C9451000C9451000C949D030C94C50326
:100050000C9451000C9451000C9451000C945100DC
:100060000C9451000C94510011241FBECFEFD8E026
:10007000DEBFCDBF11E0A0E0B1E0E0E2FBE002C0F6
:1000800005900D92A830B107D9F713E0A8E0B1E0D0
:1000900001C01D92A033B107E1F70E94CC040C947B
:1000A0008E050C940000299A089527B180911A01B9
:1000B00090911B012E7F27B928B180911A01909150
:1000C0001B012E7F28B986B120911A0130911B01A6
:1000D000817090E00895982F90539A3028F4282F3B
:1000E00030E02053310914C0982F9156963028F4EF
:1000F000282F30E0275531090BC0982F91549630A6
:1001000028F4282F30E02753310902C020E030E0E6
:10011000C90108952D9A08952D980895259A0C9453
:100120008C000E948A002FEF80E792E021508040EF
:100130009040E1F700C000000C948C008EE190E04C
:100140009093890080938800109280008CE08093C7
:10015000810082E080936F00219A22980E945300D0
:1001600010920F0110920E0108952091000130911C
:100170000101232BD1F31092010110920001FC0127
:1001800080819181A281B38180930A0190930B01B8
:10019000A0930C01B0930D01109223011092220143
:1001A00081E090E090932101809320010895809157
:1001B000000190910101892BD1F31092230110923B
:1001C0002201109209011092080182E090E09093C0
:1001D0002101809320018091080190910901892BD0
:1001E000D1F308951F920F920FB60F9211242F93FF
:1001F0003F934F935F936F937F938F939F93AF93AF
:10020000BF93CF93DF93EF93FF9380911C01909165
:100210001D01892B09F4AAC0809118019091190140
:10022000892B89F427B180911A0190911B012160DB
:1002300027B928B180911A0190911B01216028B93A
:1002400081E090E049C080911801909119010197D7
:1002500029F40E94550082E090E03EC08091180190
:1002600090911901029781F40E945500892B09F49D
:1002700071C083E090E0909319018093180110926F
:1002800017011092160172C0809118019091190106
:1002900003973CF180911801909119010B970CF58F
:1002A000C0911601D09117010E94550020911801AC
:1002B000309119012350310902C0880F991F2A95E6
:1002C000E2F78C2B9D2B9093170180931601809160
:1002D00018019091190101969093190180931801CA
:1002E00045C00E945500892BA9F1E0911A01F091B7
:1002F0001B01EE0FFF1FE25FFE4F208131818091D5
:100300001601909117012817390721F180911A01E0
:1003100090911B0190931501809314018091160117
:10032000909117019093130180931201E0911A01AB
:10033000F0911B018091160190911701EE0FFF1FA4
:10034000E25FFE4F9183808381E090E09093110102
:1003500080931001109219011092180180911A01D6
:1003600090911B0110921B0110921A0180911C01A7
:1003700090911D0121E0822790931D0180931C0123
:100380008091020190910301892B09F457C080915B
:10039000200190912101019709F0DBC08091220199
:1003A00090912301892B09F42AC080912201909118
:1003B0002301019709F4B7C0809122019091230194
:1003C0000297FCF080912201909123018297C8F45A
:1003D00080910A0190910B01A0910C01B0910D0147
:1003E00020912201309123012250310904C0B69599
:1003F000A795979587952A95D2F780FF94C029985D
:1004000094C08091220190912301829761F40E940F
:100410005300809122019091230101969093230132
:100420008093220182C081E090E09093010180934B
:100430000001109221011092200177C080912001CB
:10044000909121018230910509F083C02091220111
:1004500030912301232BB1F4299881E090E090930F
:10046000230180932201809102019091030121E0F8
:100470008227909303018093020110921F01109232
:100480001E0167C0C0912201D0912301C130D10566
:1004900051F41A9969C071C00E945300D0930901A8
:1004A000C093080152C080912201909123010297CC
:1004B000A4F18091220190912301829770F54091DF
:1004C0002C0350912D0360912E0370912F0383B163
:1004D00020912201309123018695869591E089270C
:1004E00090E0A0E0B0E081709927AA27BB272250B6
:1004F000310904C0880F991FAA1FBB1F2A95D2F784
:10050000842B952BA62BB72B80932C0390932D0334
:10051000A0932E03B0932F0308C0809122019091E5
:100520002301829761F40E945300809122019091EF
:100530002301019690932301809322010AC081E058
:1005400090E090930901809308011092210110928C
:100550002001809102019091030121E08227909374
:1005600003018093020123C010922C0310922D03EB
:1005700010922E0310922F03DDCF809102019091F3
:10058000030121E08227909303018093020180916F
:100590001E0190911F01019690931F0180931E01EF
:1005A00080911E0190911F010B979CF275CFFF91D6
:1005B000EF91DF91CF91BF91AF919F918F917F91FB
:1005C0006F915F914F913F912F910F900FBE0F90C0
:1005D0001F9018950F931F93CF93DF931F92CDB762
:1005E000DEB769830E946B008C016981862F0E94AF
:1005F0006B00980144E0220F331F4A95E1F7282B46
:10060000392BC9010F90DF91CF911F910F91089560
:100610009B01207F332754E0359527955A95E1F7C4
:100620002A30310510F4205D01C0295AFC012083D5
:100630006F7077276A30710510F4605D01C0695AE8
:10064000FC0161830895CF92DF92EF92FF92CF93E6
:10065000DF93EC016A017B016F2D772788279927AB
:10066000CE010E940803B70188279927CE01029680
:100670000E94080399278F2D7E2D6D2DCE010496A3
:100680000E940803B601CE0106960E940803188650
:10069000DF91CF91FF90EF90DF90CF900895CF93AF
:1006A000C82F9B01FB01EE5FFE4F80819181019677
:1006B00060E071E00E944405D901B3954D915C91D1
:1006C000119748175907D1F3A081B181A20FB31F29
:1006D000CC9391838083CF910895FC01F395408161
:1006E0005181DC01AE5FBE4F2D913C914217530703
:1006F00079F0A081B181A80FB91F2C9180819181DF
:10070000019660E071E00E9444059183808301C0FE
:1007100020E0822F0895FC01EE5FFE4F4081518161
:10072000FC01F39520813181CA019395821B930BC3
:1007300060E071E00E94440508951F920F920FB689
:100740000F9211242F933F934F935F936F937F9357
:100750008F939F93AF93BF93EF93FF938091C600C6
:1007600064E271E00E944F03FF91EF91BF91AF915E
:100770009F918F917F916F915F914F913F912F91B9
:100780000F900FBE0F901F9018951F920F920FB6EB
:100790000F9211242F933F934F935F936F937F9307
:1007A0008F939F93AF93BF93EF93FF9388E292E071
:1007B0000E948B03892B39F088E292E00E946D033E
:1007C0008093C60005C08091C1008F7D8093C100D9
:1007D000FF91EF91BF91AF919F918F917F916F9119
:1007E0005F914F913F912F910F900FBE0F901F90EF
:1007F0001895209128033091290380912A03909124
:100800002B0328173907A9F7109229031092280300
:1008100010922B0310922A031092250210922402A8
:10082000109227021092260208951092250210922B
:10083000240210922702109226020895CF93DF938C
:10084000EC010E94F9039E0140E050E083E0220F9A
:10085000331F441F551F8A95D1F760E074E284EF7F
:1008600090E00E945805215031093093C500209333
:10087000C400E0ECF0E0808182608083E1ECF0E095
:10088000808188698083E2ECF0E0808186608083EB
:100890007894DF91CF9108950E94F9031092C100DE
:1008A000089568E272E00E944F03E1ECF0E080817D
:1008B000806280830895CF93DF93EC0104C068E2E7
:1008C00072E00E944F0389918111F9CF8091C1009C
:1008D00080628093C100DF91CF9108950F931F93A1
:1008E000CF93DF93EC018B01080F191F05C068E25D
:1008F00072E089910E944F03C017D107C1F7809120
:10090000C10080628093C100DF91CF911F910F9150
:10091000089584E291E00C948B0384E291E00C94BE
:100920006D03EF92FF920F931F93CF93DF937B01A1
:100930008C01C0E0D0E006C00E948D04F8018193D4
:100940008F0121960E948904892B19F0CE15DF05AD
:100950009CF3CE01DF91CF911F910F91FF90EF900B
:1009600008950E948904892BE1F30C948D04209151
:1009700026023091270280912402909125022817A7
:10098000390741F0E0912402F0912502EC5DFE4F21
:100990008081089580E00895CF93DF93CDB7DEB7CF
:1009A00064970FB6F894DEBF0FBECDBFF8940E94D7
:1009B0008E000E949E0080E091EE0E941E040E9424
:1009C000910078940E948904049708F441C064E07F
:1009D00070E0CE0141960E9491042C8930E0898913
:1009E000837040E1849FC00111244A89437064E010
:1009F000469FA0011124842B952B4B894370842B97
:100A000028173907F9F4CE0141960E94B5000E94DB
:100A1000D70040912C0350912D0360912E037091CB
:100A20002F03CE0101960E942303CE0101960E945E
:100A30005B0410922C0310922D0310922E0310923F
:100A40002F0306C084E091E00E945B040E9415041D
:100A50008091100190911101892B09F4B3CF10926C
:100A60001101109210016091120170911301CE01D9
:100A700001960E9408031B8287E70E945104CE0161
:100A800001960E945B049ECF97FB072E16F40094FC
:100A900007D077FD09D00E947A0507FC05D03EF407
:100AA000909581959F4F0895709561957F4F08951A
:100AB000A1E21A2EAA1BBB1BFD010DC0AA1FBB1F62
:100AC000EE1FFF1FA217B307E407F50720F0A21BD4
:100AD000B30BE40BF50B661F771F881F991F1A9441
:100AE00069F760957095809590959B01AC01BD016B
:100AF000CF010895AA1BBB1B51E107C0AA1FBB1F52
:100B0000A617B70710F0A61BB70B881F991F5A9599
:100B1000A9F780959095BC01CD010895F894FFCF79
:080B20000100010072650000F4
:00000001FF
