:100000000C9434000C9451000C9451000C94510049
:100010000C9451000C9451000C9451000C9451001C
:100020000C9451000C9451000C9451000C949600C7
:100030000C9451000C9451000C9451000C945100FC
:100040000C9451000C9451000C94CE020C94F602C6
:100050000C9451000C9451000C9451000C945100DC
:100060000C9451000C94510011241FBECFEFD8E026
:10007000DEBFCDBF11E0A0E0B1E0ECE2F8E002C0ED
:1000800005900D92A430B107D9F713E0A4E0B1E0D8
:1000900001C01D92AA31B107E1F70E94F3010C944F
:1000A00014040C9400002D9A08952D980895259A13
:1000B0002D9808952D9A84EF91E020E931E0F9011F
:1000C0003197F1F70197D9F72D9808958EE190E0D7
:1000D0009093890080938800109280008CE0809338
:1000E000810082E080936F00219A2298299A0895D6
:1000F000282F8091020190910301892BD1F3109256
:1001000003011092020120930A0160930B015093A6
:100110000D0140930C01109209011092080181E039
:1001200090E0909307018093060108951F920F922B
:100130000FB60F921124EF92FF920F931F932F93FC
:100140003F934F935F938F939F93AF93BF93809110
:10015000000190910101892B09F448C080910601AA
:1001600090910701019709F0AFC08091080190912B
:100170000901892B59F1809108019091090101979A
:1001800039F1809108019091090102971CF1809149
:100190000801909109018297E8F480910A019091F9
:1001A0000B01A0910C01B0910D012091080130913B
:1001B00009012250304004C0B695A79597958795C0
:1001C0002A95D2F781709070892B11F0299867C019
:1001D000299A65C0299A81E090E090930301809369
:1001E0000201109207011092060159C020910601E8
:1001F000309107012230310509F066C08091080175
:1002000090910901892B21F4299881E090E04CC05C
:100210008091080190910901019719F41A9B54C02B
:1002200070C0809108019091090102970CF441C0BF
:1002300080910801909109018297D8F5E09016030A
:10024000F0901703009118031091190383B14091A6
:1002500008015091090190E09695879596958795AC
:1002600021E030E082279327A0E0B0E08170907019
:10027000A070B0704250504004C0880F991FAA1F50
:10028000BB1F4A95D2F78E299F29A02BB12B8093B3
:10029000160390931703A0931803B093190380914A
:1002A000080190910901019690930901809308013A
:1002B0000BC0299A81E090E090930501809304019E
:1002C00010920701109206018091000190910101A6
:1002D00021E030E082279327909301018093000171
:1002E000BF91AF919F918F915F914F913F912F91CE
:1002F0001F910F91FF90EF900F900FBE0F901F90E6
:10030000189510921603109217031092180310926A
:1003100019033093090120930801D6CF282F805369
:100320008A3020F430E02053304012C0822F8156B2
:10033000863020F430E0275530400AC0822F8154A7
:10034000863018F020E030E003C030E02753304022
:10035000862F80538A3020F470E06053704012C0C2
:10036000862F8156863020F470E0675570400AC0B1
:10037000862F8154863018F060E070E003C070E092
:100380006753704044E0220F331F4A95E1F7262B54
:10039000372BC9010895FC019B01207F307054E088
:1003A000359527955A95E1F72A30310518F4822FB3
:1003B000805D08C0C9010A97069710F080E302C06B
:1003C000822F895A80836F7070706A30710510F4C3
:1003D000605D07C0CB010A97069710F060E301C08B
:1003E000695A618308959F92AF92BF92CF92DF9234
:1003F000EF92FF920F931F93CF93DF93F894259A78
:100400002D980E94660080E091EE0E944F030E94AA
:100410005A007894EE24EA9499249394E1E0CE2E45
:10042000D12C72E0A72E63E0B62E0E94AA0381337E
:1004300079F48091020190910301892BD1F31092FC
:10044000030110920201E0920A0190920B0110C088
:10045000803399F48091020190910301892BD1F3AB
:100460001092030110920201E0920A01A0920B0186
:1004700010920D0110920C012AC08D36B1F60E9427
:10048000AF03182F0E94AF03F82E0E94AF03082F6E
:100490008091020190910301892BD1F31092030105
:1004A00010920201E0920A01B0920B0180E3612FE9
:1004B0000E948E01182F8F2D602F0E948E01D12F48
:1004C000C0E08C2B9D2B90930D0180930C0110921A
:1004D000090110920801D0920701C0920601A5CF30
:1004E000CF93DF93482FEB01CE5FDE4F8881998158
:1004F000C250D140019660E071E00E94CB039C01A4
:10050000FE01E050FF4F8081918182179307D9F35C
:10051000DE01AE5FBE4FED91FC911197EC0FFD1F18
:10052000408311963C932E93DF91CF910895CF9302
:10053000DF93DC01EC01C050DF4F28813981AE5FD1
:10054000BE4F8D919C911197A250B1402817390749
:1005500011F4E0E00EC0E881F981EA0FFB1FE081B1
:1005600088819981019660E071E00E94CB039983B4
:1005700088838E2FDF91CF910895FC01EE5FFE4FAF
:100580008081918132972081318180509F4F821BE1
:10059000930B60E071E00E94CB0308951F920F92CD
:1005A0000FB60F9211242F933F934F935F936F9346
:1005B0007F938F939F93AF93BF93EF93FF9380911C
:1005C000C60062E172E00E947002FF91EF91BF915C
:1005D000AF919F918F917F916F915F914F913F91DB
:1005E0002F910F900FBE0F901F9018951F920F9292
:1005F0000FB60F9211242F933F934F935F936F93F6
:100600007F938F939F93AF93BF93EF93FF938EE06E
:1006100091E00E94BD02892B39F08EE091E00E94AA
:1006200097028093C60005C08091C1008F7D8093A2
:10063000C100FF91EF91BF91AF919F918F917F91F9
:100640006F915F914F913F912F910F900FBE0F903F
:100650001F90189520910E0230910F028091100288
:100660009091110228173907A9F710920F021092E2
:100670000E021092110210921002109213031092A7
:10068000120310921503109214030895109213038D
:100690001092120310921503109214030895EF9212
:1006A000FF920F931F937C010E942A0300E010E049
:1006B00083E0EE0CFF1C001F111F8A95D1F760E04C
:1006C00074E284EF90E0A80197010E94DE032150BC
:1006D00030403093C5002093C400E0ECF0E080810E
:1006E00082608083E1ECF0E0808188698083E2ECC5
:1006F000F0E080818660808378941F910F91FF9055
:10070000EF9008950E942A031092C10008956EE0B0
:1007100071E00E947002E1ECF0E0808180628083F1
:100720000895CF93DF93EC0105C021966EE071E050
:100730000E94700288818823C1F78091C100806285
:100740008093C100DF91CF91089582E192E00E94F1
:10075000BD02089582E192E00E94970208950E94EE
:10076000A503892BE1F30E94AA03089520911403A5
:1007700030911503809112039091130328173907C4
:1007800011F480E00895E0911203F0911303EE5EFE
:10079000FD4F8081089597FB092E07260AD077FD2B
:1007A00004D02ED006D000201AF4709561957F4FAA
:1007B0000895F6F7909581959F4F0895A1E21A2E1E
:1007C000AA1BBB1BFD010DC0AA1FBB1FEE1FFF1FF5
:1007D000A217B307E407F50720F0A21BB30BE40B45
:1007E000F50B661F771F881F991F1A9469F760958C
:1007F0007095809590959B01AC01BD01CF01089546
:10080000AA1BBB1B51E107C0AA1FBB1FA617B70736
:1008100010F0A61BB70B881F991F5A95A9F7809552
:0C0820009095BC01CD010895F894FFCF25
:04082C0001000100C6
:00000001FF
