:1000000010C02AC029C028C027C026C025C024C0CF
:1000100023C076C021C020C01FC01EC01DC01CC090
:100020001BC011241FBECFE5D2E0DEBFCDBF10E064
:10003000A0E6B0E0E2E2F4E002C005900D92A23644
:10004000B107D9F710E0A2E6B0E001C01D92AE36CC
:10005000B107E1F79CD1E3C1D3CFD89A0895D898DE
:100060000895D09AD8980895D89A84EF91E028EC12
:1000700030E0F9013197F1F70197D9F7D898089551
:100080001FBC1EBCDF9ADC9ADE9ADD9A08958AB303
:10009000806F8ABBF5DF0895982FDF98DC9ADE9891
:1000A0008F3F21F41FBC1EBCDD9A0895882311F4F4
:1000B000E7DF0895DD9881E28FBD8CE08EBD19BC2D
:1000C00098BD0895982FDF9ADC98DD988F3F21F432
:1000D0001FBC1EBCDE9A0895882311F4D1DF089559
:1000E000DE9881E88FBD8CE08EBD1BBC9ABD089563
:1000F0008FE386BF92E090BF83E083BF99BF0895EE
:100100001F920F920FB60F921124EF92FF920F934E
:100110001F932F933F934F935F938F939F93AF932F
:10012000BF938091640090916500892B09F450C0C1
:100130008091660090916700892B39F4B898C09837
:10014000B09B5AC081E090E00AC080916600909117
:100150006700019749F4B89AC09A82E090E09093C2
:1001600067008093660048C08091660090916700A8
:100170000297C4F080916600909167000A9794F40A
:1001800020916600309167002250304085E190E078
:1001900002C0959587952A95E2F780FD09C0B89A27
:1001A000C09808C080916600909167000A9741F45A
:1001B000B89AC09A80916600909167000196CFCF5F
:1001C000B898C09886B3109267001092660014C069
:1001D0008091660090916700892B71F4B898C0985F
:1001E000B09B0AC081E090E0909367008093660026
:1001F000909365008093640080916000909161000D
:10020000892B09F461C08091680090916900892B65
:1002100021F4B998B19972C060C080916800909142
:100220006900019721F4B998B19B68C08EC0809194
:100230006800909169000297E4F1809168009091C4
:1002400069008297B0F5E0906A00F0906B00009131
:100250006C0010916D00B99886B340916800509180
:10026000690090E09695879521E030E082279327FA
:10027000A0E0B0E081709070A070B070425050402B
:1002800004C0880F991FAA1FBB1F4A95D2F78E2959
:100290009F29A02BB12B80936A0090936B00A093B1
:1002A0006C00B0936D008091680090916900019698
:1002B00016C0109269001092680081E090E090935F
:1002C0006300809362001AC0809168009091690079
:1002D000892B51F4B998B19907C081E090E09093CF
:1002E0006900809368000AC020916800309169001D
:1002F0002130310519F4B998B19936C08091600068
:100300009091610021E030E0822793279093610073
:10031000809360008091640090916500822793270C
:100320009093650080936400BF91AF919F918F91EE
:100330005F914F913F912F911F910F91FF90EF90FF
:100340000F900FBE0F901F90189582E090E0909351
:1003500069008093680010926A0010926B001092FE
:100360006C0010926D00CACF82E090E0909369001B
:100370008093680010926A0010926B0010926C00DB
:1003800010926D003093610020936000B7CFF89415
:1003900080ED97E028EC30E0F9013197F1F7019713
:1003A000D9F7D09AD8988FE386BF92E090BF83E0C8
:1003B00083BF99BF6CDE789457DE80916200909184
:1003C0006300892BD1F380916A00853121F08091FF
:1003D0006A008F3FF9F480916B00813011F4D89A54
:1003E00019C080916B00823011F4D89813C08091AD
:1003F0006B00833079F420916C0030916D00809116
:100400006C0090916D00992319F0822F45DE02C097
:10041000822F58DE1092630010926200CECFF894C3
:02042000FFCF0C
:020422000100D7
:00000001FF
