:1000000010C02AC029C028C027C026C025C024C0CF
:1000100023C0D7C021C020C01FC01EC01DC01CC02F
:100020001BC011241FBECFE5D2E0DEBFCDBF10E064
:10003000A0E6B0E0E4EAF7E002C005900D92A63633
:10004000B107D9F710E0A6E6B0E001C01D92AC37C9
:10005000B107E1F7D6D2A4C3D3CFD99A81E090E01B
:1000600090937700809376000895D9981092770046
:10007000109276000895D19AD99810927700109234
:100080007600089580917600909177000895D99A2E
:1000900084EF91E020E931E0F9013197F1F7019720
:1000A000D9F7D998109277001092760008951FBC66
:1000B0001EBCDF9ADC9ADE9ADD9A08958AB3806FBF
:1000C0008ABBF5DF08951F93182FDF98DC9ADE981E
:1000D0008F3F21F41FBC1EBCDD9A0BC0882311F496
:1000E000E6DF07C0DD9881E28FBD8CE08EBD19BCD4
:1000F00018BD109374001092750081E090E0909309
:100100007300809372001F9108951F93182FDF9A38
:10011000DC98DD988F3F21F41FBC1EBCDE9A0BC01B
:10012000882311F4C4DF07C0DE9881E88FBD8CE01E
:100130008EBD1BBC1ABD10937400109275001092F6
:100140007300109272001F91089580917400909135
:100150007500089580917200909173000895D2986F
:10016000D398CA9B05C010927100109270000DC008
:10017000CB9905C021E030E040E050E00AC081E0CA
:1001800090E0909371008093700020E030E040E0B8
:1001900050E0B901CA0108958EE186BF92E090BF98
:1001A00084E083BF99BF089580916E0090916F00A5
:1001B000892B31F481E090E090936D0080936C0086
:1001C00008951F920F920FB60F921124EF92FF9293
:1001D0000F931F932F933F934F935F936F937F934F
:1001E0008F939F93AF93BF93CF93DF93EF93FF933F
:1001F0008091680090916900892B09F450C080912A
:100200006A0090916B00892B39F4D098D898C89BDC
:100210005AC081E090E00AC080916A0090916B0022
:10022000019749F4D09AD89A82E090E090936B00BD
:1002300080936A0048C080916A0090916B00029799
:10024000C4F080916A0090916B000A9794F4209119
:100250006A0030916B00225030408AEA90E002C080
:10026000959587952A95E2F780FD09C0D09AD89890
:1002700008C080916A0090916B000A9741F4D09A6F
:10028000D89A80916A0090916B000196CFCFD09858
:10029000D89889B310926B0010926A0014C08091B4
:1002A0006A0090916B00892B71F4D098D898C89B04
:1002B0000AC081E090E090936B0080936A00909375
:1002C0006900809368008091640090916500892B9B
:1002D00009F4E3C080916C0090916D00892B09F4C2
:1002E0006DC080916E0090916F00892B09F46CC0F5
:1002F00080916E0090916F00019791F48091700051
:1003000090917100892B19F0D39ADB9A02C0D29A8E
:10031000DA9A82E090E090936F0080936E00F1C0D3
:1003200080916E0090916F000297BCF180916E00F9
:1003300090916F00829788F5809178009091790074
:10034000A0917A00B0917B0020916E0030916F00F7
:100350002250304004C0B695A795979587952A9569
:10036000D2F781709070892B61F08091700090912C
:100370007100892B19F0D39ADB9878C0D29ADA9859
:1003800075C08091700090917100892B19F0D39AFB
:10039000DB9A6CC0D29ADA9A69C080916E00909113
:1003A0006F00829711F4DBDE61C010926D00109235
:1003B0006C0010926F0010926E00A3C080916E00CE
:1003C00090916F00892B41F4CADE6115710581059A
:1003D000910509F496C073C080916E0090916F00F2
:1003E0000197B1F4BCDE611571058105910509F035
:1003F00088C082E090E090936F0080936E0010922E
:1004000078001092790010927A0010927B0079C0E7
:1004100080916E0090916F00029774F180916E0050
:1004200090916F00829740F5E0907800F09079000D
:1004300000917A0010917B0092DE20916E00309145
:100440006F002250304004C0660F771F881F991F2D
:100450002A95D2F7E62AF72A082B192BE092780082
:10046000F092790000937A0010937B0080916E00E7
:1004700090916F0001964FCF80916E0090916F0028
:100480008297A1F310926F0010926E0081E090E0CD
:10049000909367008093660034C080916C009091C7
:1004A0006D00892B71F580916E0090916F00892B02
:1004B00049F455DE611571058105910519F081E05A
:1004C00090E029CFC0916E00D0916F00C130D1056E
:1004D000C1F445DE611571058105910591F482E055
:1004E00090E090936F0080936E00109278001092CD
:1004F000790010927A0010927B00D0936500C0932F
:100500006400809164009091650021E030E08227D2
:100510009327909365008093640080916800909188
:100520006900822793279093690080936800FF9168
:10053000EF91DF91CF91BF91AF919F918F917F917B
:100540006F915F914F913F912F911F910F91FF906C
:10055000EF900F900FBE0F901F901895FC019B011C
:10056000207F307084E0359527958A95E1F72A3011
:10057000310518F4822F805D08C0C9010A970697DB
:1005800010F080E302C0822F895A80836F707070F0
:100590006A30710510F4605D07C0CB010A970697B9
:1005A00010F060E301C0695A61830895CF92DF9231
:1005B000EF92FF920F931F936C017A018B01272F0B
:1005C000332744275527B901C9DF98014427552708
:1005D000C6010296B901C2DF5527412F302F2F2DBA
:1005E000C6010496B901BADFC6010696B701B6DFA7
:1005F000F60110861F910F91FF90EF90DF90CF9042
:1006000008950F931F93CF93DF93F89480ED97E0B5
:1006100020E931E0F9013197F1F70197D9F7D19A43
:10062000D99810927700109276008EE186BF92E002
:1006300090BF84E083BF99BF41DD789428DDC091ED
:100640007600D091770001E010E0809166009091F3
:100650006700892BD1F310926700109266006091B9
:100660007B00209178008091790040917A0070E0C1
:1006700030E023703070F4E0220F331FFA95E1F779
:1006800090E083709070880F991F880F991F282B16
:10069000392B50E043705070242B352B62177307B1
:1006A000A1F6809178008A3A21F0809178008F3FFE
:1006B00061F680917900813021F4D99AC1E0D0E0CF
:1006C00044C080917900823021F4D998C0E0D0E014
:1006D0003CC080917900833021F480917A00F3DC72
:1006E00034C080917900843021F480917A000DDD4E
:1006F0002CC0809179008530B1F480917A008823F4
:1007000041F48091720090917300880F991F8C2B97
:100710001AC080917A00813019F48091740013C05E
:1007200010927A0012C080917900863071F4809125
:100730007A0080917A00833040F4E0917A00F0E012
:10074000E05AFF4F808180937A0080917800209159
:10075000790040917A0090E08370907064E0880F97
:10076000991F6A95E1F730E023703070220F331F34
:10077000220F331F822B4370842B80937B00809148
:1007800078008A3A09F061CF80916E0090916F00F5
:10079000892B09F05ACF10936D0000936C0055CF50
:0407A000F894FFCFFB
:0607A400424C550001006B
:00000001FF
